:020000040000fa
:080000000002040000000000f2
:020000040000fa
:04000800a80200004a
:020000040000fa
:04000c00a802000046
:020000040000fa
:04001000a802000042
:020000040000fa
:04001400a80200003e
:020000040000fa
:04001800a80200003a
:020000040000fa
:04001c00a802000036
:020000040000fa
:04002000a802000032
:020000040000fa
:04002400a80200002e
:020000040000fa
:04002800a80200002a
:020000040000fa
:04002c00a802000026
:020000040000fa
:04003000a802000022
:020000040000fa
:04003400a80200001e
:020000040000fa
:04003800a80200001a
:020000040000fa
:04003c00a802000016
:020000040000fa
:04004000a802000012
:020000040000fa
:04004400a80200000e
:020000040000fa
:04004800a80200000a
:020000040000fa
:04004c00a802000006
:020000040000fa
:04005000a802000002
:020000040000fa
:04005400a8020000fe
:020000040000fa
:04005800a8020000fa
:020000040000fa
:04005c00a8020000f6
:020000040000fa
:04006000a8020000f2
:020000040000fa
:04006400a8020000ee
:020000040000fa
:04006800a8020000ea
:020000040000fa
:04006c00a8020000e6
:020000040000fa
:04007000a8020000e2
:020000040000fa
:04007400a8020000de
:020000040000fa
:04007800a8020000da
:020000040000fa
:04007c00a8020000d6
:020000040000fa
:04008000a8020000d2
:020000040000fa
:04008400a8020000ce
:020000040000fa
:04008800a8020000ca
:020000040000fa
:04008c00a8020000c6
:020000040000fa
:04009000a8020000c2
:020000040000fa
:04009400a8020000be
:020000040000fa
:04009800a8020000ba
:020000040000fa
:04009c00a8020000b6
:020000040000fa
:0400a000a8020000b2
:020000040000fa
:0400a400a8020000ae
:020000040000fa
:0400a800a8020000aa
:020000040000fa
:0400ac00a8020000a6
:020000040000fa
:0400b000a8020000a2
:020000040000fa
:0400b400a80200009e
:020000040000fa
:0400b800a80200009a
:020000040000fa
:0400bc00a802000096
:020000040000fa
:0400c000a802000092
:020000040000fa
:0400c400a80200008e
:020000040000fa
:0400c800a80200008a
:020000040000fa
:0400cc00a802000086
:020000040000fa
:0400d000a802000082
:020000040000fa
:0400d400a80200007e
:020000040000fa
:0400d800a80200007a
:020000040000fa
:0400dc00a802000076
:020000040000fa
:0400e000a802000072
:020000040000fa
:0400e400a80200006e
:020000040000fa
:0400e800a80200006a
:020000040000fa
:0400ec00a802000066
:020000040000fa
:0400f000a802000062
:020000040000fa
:0400f400a80200005e
:020000040000fa
:0400f800a80200005a
:020000040000fa
:0400fc00a802000056
:020000040000fa
:04010000a802000051
:020000040000fa
:04010400a80200004d
:020000040000fa
:04010800a802000049
:020000040000fa
:04010c00a802000045
:020000040000fa
:04011000a802000041
:020000040000fa
:04011400a80200003d
:020000040000fa
:04011800a802000039
:020000040000fa
:04011c00a802000035
:020000040000fa
:04012000a802000031
:020000040000fa
:04012400a80200002d
:020000040000fa
:04012800a802000029
:020000040000fa
:04012c00a802000025
:020000040000fa
:04013000a802000021
:020000040000fa
:04013400a80200001d
:020000040000fa
:04020800a802000048
:020000040000fa
:04020c00a802000044
:020000040000fa
:04021000a802000040
:020000040000fa
:04021400a80200003c
:020000040000fa
:04021800a802000038
:020000040000fa
:04021c00a802000034
:020000040000fa
:04022000a802000030
:020000040000fa
:04022400a80200002c
:020000040000fa
:04022800a802000028
:020000040000fa
:04022c00a802000024
:020000040000fa
:04023000a802000020
:020000040000fa
:04023400a80200001c
:020000040000fa
:04023800a802000018
:020000040000fa
:04023c00a802000014
:020000040000fa
:04024000a802000010
:020000040000fa
:04024400a80200000c
:020000040000fa
:04024800a802000008
:020000040000fa
:04024c00a802000004
:020000040000fa
:04025000a802000000
:020000040000fa
:04025400a8020000fc
:020000040000fa
:04025800a8020000f8
:020000040000fa
:04025c00a8020000f4
:020000040000fa
:04026000a8020000f0
:020000040000fa
:04026400a8020000ec
:020000040000fa
:04026800a8020000e8
:020000040000fa
:04026c00a8020000e4
:020000040000fa
:04027000a8020000e0
:020000040000fa
:04027400a8020000dc
:020000040000fa
:04027800a8020000d8
:020000040000fa
:04027c00a8020000d4
:020000040000fa
:04028000a8020000d0
:020000040000fa
:04028400a8020000cc
:020000040000fa
:04028800a8020000c8
:020000040000fa
:04028c00a8020000c4
:020000040000fa
:04029000a8020000c0
:020000040000fa
:04029400a8020000bc
:020000040000fa
:04029800a8020000b8
:020000040000fa
:04029c00a8020000b4
:020000040000fa
:0402a000a8020000b0
:020000040000fa
:0402a400a8020000ac
:020000040000fa
:0402a800a8020000a8
:020000040000fa
:0402ac00a8020000a4
:020000040000fa
:0402b000a8020000a0
:020000040000fa
:0402b400a80200009c
:020000040000fa
:0402b800a802000098
:020000040000fa
:0402bc00a802000094
:020000040000fa
:0402c000a802000090
:020000040000fa
:0402c400a80200008c
:020000040000fa
:0402c800a802000088
:020000040000fa
:0402cc00a802000084
:020000040000fa
:0402d000a802000080
:020000040000fa
:0402d400a80200007c
:020000040000fa
:0402d800a802000078
:020000040000fa
:0402dc00a802000074
:020000040000fa
:0402e000a802000070
:020000040000fa
:0402e400a80200006c
:020000040000fa
:0402e800a802000068
:020000040000fa
:0402ec00a802000064
:020000040000fa
:0402f000a802000060
:020000040000fa
:0402f400a80200005c
:020000040000fa
:0402f800a802000058
:020000040000fa
:0402fc00a802000054
:020000040000fa
:04030000a80200004f
:020000040000fa
:04030400a80200004b
:020000040000fa
:04030800a802000047
:020000040000fa
:04030c00a802000043
:020000040000fa
:04031000a80200003f
:020000040000fa
:04031400a80200003b
:020000040000fa
:04031800a802000037
:020000040000fa
:04031c00a802000033
:020000040000fa
:04032000a80200002f
:020000040000fa
:04032400a80200002b
:020000040000fa
:04032800a802000027
:020000040000fa
:04032c00a802000023
:020000040000fa
:04033000a80200001f
:020000040000fa
:04033400a80200001b
:020000040000fa
:100400006f0221000e7f22000e0188000000000014
:10041000000020000000e000020032000001200087
:10042000200288000c00070040ee200001002000a0
:1004300011000700000020000000e0000200320070
:100440000000020000000000c618020000000000ca
:100450000040da000000fe004440a900200920000e
:100460000000e0000300320000002000a00188002e
:100470004440a80000000600910188008000780038
:100480000000eb0015003700e280400032a0b4000d
:100490009101ba00e280400032a0b4009102ba009b
:1004a000e280400032a0b4000002eb00472bde00e7
:1004b000f507b200602ce10004003a000059eb009f
:1004c0008301e900fdff3e00040037006128e100e0
:1004d000010032000082eb000b00070011c3ba00dc
:1004e0001101ba000604e00003003a000200e00037
:1004f000e5ff3a0000000600f607b200960188000a
:1005000082007800f5ff37003159ba008301e90015
:100510000c0032002159ba008301e90008003200c2
:100520000400e00003003a00e280400032a0b40082
:10053000f5ff370011d9ba008301e900faff3a004c
:100540008100e800e180400032a0b4000000060015
:100550000040da000000fe00839f68000100e00018
:1005600002003d0060001000e08018000300e00081
:1005700002003d0060011100e08119000500070044
:100580004f00e00002003b0060001000e080180017
:10059000000006006022b800060220000000d00023
:1005a0008180d2000482d2008582d2000000a000a7
:1005b0000202520083825a0003003100020242000c
:1005c00083824a000000a1000603e900f3ff3a001d
:1005d00000000600889fbe008a9fbe0030044200d3
:1005e000b0844a0030054b0090854b006000b1009c
:1005f0000898be000a90be000440e10005c8e10072
:1006000006d0e10007d8e100020031006800400098
:100610001008e8004f05be004f04be0000000600b1
:10062000889fbe008a9fbe003004be002005be0029
:100630000418540005985c0006185d0007985d00da
:10064000110020000440e10005c8e10006d0e100ef
:1006500007d8e100010039008000eb00108810008d
:100660004f05be004f04be00000006001200fa0055
:10067000889fbe008a9fbe008c9fbe00e0b79f008f
:10068000f1b79f0082bf9f0093bf9f000605be0089
:100690000404be000000eb00d0b79f00c0b79f006d
:1006a000b0b79f00a0b79f0090b79f000006eb0077
:1006b0005fb19700cfb09700820141003fb0970033
:1006c0000200e00004003d00370007007e80570074
:1006d000c0ff070003003700330007007e8057008b
:1006e000cfff0700dfb697000d00e0000c003500db
:1006f0006fb29700ffb297000fbb97009fbb9700a8
:1007000010002000010020006011b80000027200fb
:100710008182720002037300838373001b00070051
:100720000c06e80001042000810f5600e0ff3a00ab
:100730000d00e00004003d000802be000a03be00f8
:100740007e805700a3ff07005fa897000000e0002d
:1007500005003a001fb29700afb297003fb3970071
:10076000cfb39700090007006fb09700ffb0970064
:100770000fb997009fb997004f06be004f05be0006
:100780004f04be000080fa000000060001000700d0
:1007900000000600a4b79f00b5b79f00c6b79f0032
:1007a000d7b79f00000006004f09de00828171006c
:1007b000b3b79f004f01de0081804000828070004f
:1007c000a1b79f008fb097004f09de0000004000e6
:1007d0000200700090b79f007fa897004f01de00d5
:1007e000818040008280700081b79f000d0007006b
:1007f0004f3ade000000400004007000f0af9f00a0
:10080000080007000402420085824a0006034b00ec
:1008100087834b00dfff07000802be000a03be000b
:10082000000006002fb29700bfb297004fb39700a9
:10083000dfb3970000000600881f78001800200032
:10084000881f780089ff07008f87e9004f04780030
:1008500000000600801feb0084ff07008f87e9007f
:1008600000000600889fbe008a9fbe00e00f500077
:10087000e08f5800e00f5900e08f59000c003d0058
:100880006044b8006055b8000000540081805c00ee
:1008900002015d0083815d00180020001500070043
:1008a00008003d00180007000004eb0005003700b9
:1008b0000004eb000f00070002003d0012000700db
:1008c00018002000dcff07000800e00006003200ee
:1008d0006022b8006033b8000000520081805a00e6
:1008e00002015b0083815b004f05be004f04be0028
:1008f00000000600e00f5200e08f5a00e00f5b009e
:10090000e08f5b00000006006044b8006055b8004e
:100910000402540085825c0006035d0087835d004d
:1009200000000600889fbe008a9fbe008c1f7800d2
:10093000e00f5000e08f5800e00f5900e08f5900a1
:100940000d003d006044b8006055b8000000540040
:1009500081805c0002015d0083815d001c0020003d
:100960000820e10009a8e1000ab0e1000bb8e100ad
:100970000d003d00080037000006eb00e00f5200bc
:10098000e08f5a00e00f5b00e08f5b0006003d0047
:100990006044b8006055b8000402540085825c00d1
:1009a00006035d0087835d00aaff07000c00e000de
:1009b000060032006022b8006033b8000000520028
:1009c00081805a0002015b0083815b004f06780042
:1009d0004f05be004f04be0000000600889fbe0009
:1009e0008a9fbe008c1f78000006eb00e00f5000cd
:1009f000e08f5800e00f5900e08f590007003d00dc
:100a00006044b8006055b8000000540081805c006c
:100a100002015d0083815d001c002000e00f520098
:100a2000e08f5a00e00f5b00e08f5b0007003d00a5
:100a30006044b8006055b8000402540085825c0030
:100a400006035d0087835d000c00a2000c00070018
:100a50000c00e000060032006022b8006033b800ed
:100a60000000520081805a0002015b0083815b001c
:100a70004f0678004f05be004f04be000000060080
:100a8000889fbe008a9fbe008c9fbe000404b800f1
:100a90000506b8008904460060854e000606b800c9
:100aa0000a054600e0854e000706b8008b054600a3
:100ab000040eb800890446000a854e00e0854d000a
:100ac000050eb8000a0546008b854e00060eb800dc
:100ad0008b0546000416b8000a0546008b854e00bb
:100ae0000516b8008b054600041eb8008b054600ad
:100af0000800be000a01be004f06be004f05be0042
:080b00004f04be0000000600d6
:020000040000fa
:100b0800465200004545000053540000594c00006f
:100b18004552000020000000492000005741000015
:100b2800532000004d4100004445000020460000cd
:100b38004f52000020200000002d0000494e000008
:100b480047200000594f00005500000053410000a5
:100b58004e440000535400004f5200004d20000046
:100b68000020000020200000204400005544000020
:100b78005544000055440000554400005544000009
:100b880055200000005300002e4f00002e410000a9
:100b98002e4400002e20000000200000202000002d
:100ba800544f0000584900004349000054590000c0
:100bb8000047000049470000492000004427000082
:100bc800414700004f530000544900004e4f0000b9
:100bd800200000002054000048450000205200007a
:100be80049440000444c000045200000004b000030
:100bf8004e490000474800005420000052490000b8
:100c0800444500005200000042410000544d0000dd
:100c1800414e00002000000020200000202000009d
:040c280020000000a8
:020000040000fa
:100c2c000000fa00f03f2000103088003038280017
:100c3c0000308800100020006030880000e22400a2
:100c4c00eb00070000e22400e90007000426ef0097
:100c5c00800320004030880080202500e40007003d
:100c6c000426ef00c000200040308800803e2000a9
:100c7c00df0007000426ef006000200040308800f1
:100c8c0080bb2000da0007005a00070010c0b30038
:100c9c000080fa00000006000400fa00000f780043
:100cac00110798000a0037001e00780010407800e9
:100cbc000000fb000000e000110032001e00780074
:100ccc00104078001e0fe800100007000000000024
:100cdc001e00900000f0a7000000ea000000ea00ef
:100cec004f00de00004078009e0090008100e9007b
:100cfc00110798000004e000ebff3a0001003700f8
:100d0c00000000000080fa00000006000200fa005b
:100d1c00004f78001e00fb00ea0f50000700320065
:100d2c00ed0f500003003200e80f50000a003200b3
:100d3c000e0037003e0007002c00370000c8bf0033
:100d4c000004e00002003a009e0007002700370074
:100d5c0091000700250037004700070000c2b300d0
:100d6c00eaff0700440007002000370010002000b5
:100d7c00203088001e00fb0040308800803e2000a0
:100d8c009b00070001c8bf000040e80001e8b70065
:100d9c0001c8bf00f04f500013003a000168ef008b
:100dac0000c8bf000004e00008003a000426ef0071
:100dbc00000c20004030880080bb20008c00070015
:100dcc0010c0b30000e8b700080037000426ef009d
:100ddc00000820004030880080bb20008400070001
:100dec000068ef0001003700000000000080fa00ee
:100dfc00000006000000fa000426ef00100020009e
:100e0c004030880080bb2000790007000426ef00ea
:100e1c00200020004030880080bb200074000700b8
:100e2c000068ef000168ef000080fa000000060087
:100e3c000000fa0000c8bf000004e00006003a0001
:100e4c000426ef00000820004030880080bb200002
:100e5c0067000700050037000426ef00000c200097
:100e6c004030880080bb2000610007000168ef0063
:100e7c000080fa00000006000200fa0001c8bf0062
:100e8c000004e0001a003a0000c8bf000004e000b3
:100e9c0008003a000426ef00000c200040308800c7
:100eac0080bb20005200070010c0b30000e8b70060
:100ebc00060037000426ef000008200040308800b0
:100ecc0080bb20004a0007000068ef000040eb00e8
:100edc00004f7800020037000f0007001e4fe8009b
:100eec001e407800ee4f5000fbff36000800370024
:100efc0001c8bf000040e90001e8b7000426ef007c
:100f0c000001200040308800803e2000380007009f
:100f1c000080fa00000006000000fa000426ef0032
:100f2c004001200040308800803e20003000070047
:100f3c0001c8bf000040e80001e8b70001c8bf00cd
:100f4c00f04f500012003a000168ef0000c8bf00db
:100f5c000004e00008003a000426ef00000c20001a
:100f6c004030880080bb20002100070010c0b30077
:100f7c0000e8b700060037000426ef000008200048
:100f8c004030880080bb2000190007000068ef008b
:100f9c000080fa00000006000200fa000040eb009e
:100fac00004f780002003700b3ff07001e4fe80027
:100fbc001e407800ef4f5000fbff36000080fa0017
:100fcc00000006000200fa000040eb00004f780021
:100fdc0002003700d0ff07001e4fe8001e407800cb
:100fec00ef4f5000fbff36000080fa0000000600b7
:100ffc000200fa00000f7800010037001e0fe90014
:10100c001e0078000000e000fcff3a000080fa00af
:10101c00000006000200fa00004f78001e40780025
:10102c000004e000060032000426ef00f00020006f
:10103c004030880080bb2000edff07000500370022
:10104c000426ef00c00020004030880080bb200048
:10105c00e7ff07000080fa00000006000000fa001d
:10106c000426ef000004200040308800803e200061
:10107c00dfff070010002000203088003000200027
:10108c0040308800803e2000d9ff0700100020006f
:10109c00203088004000200040308800803e200036
:1010ac00d3ff07001000200020308800b000200083
:1010bc0040308800803e2000cdff0700100020004b
:1010cc00203088008000200040308800803e2000c6
:1010dc00c7ff0700100020002030880040002000cf
:1010ec0040308800803e2000c1ff07001000200027
:1010fc00203088004000200040308800803e2000d6
:10110c00bbff0700100020002030880020002000ca
:10111c0040308800803e2000b5ff07001000200002
:10112c00203088001000200040308800803e2000d5
:10113c00afff07000426ef00800420004030880039
:10114c00803e2000aaff07001000200020308800fd
:10115c008001200040308800803e2000a4ff070062
:10116c001000200020308800400020004030880013
:10117c00803e20009eff07001000200020308800d9
:10118c00a001200040308800803e200098ff07001e
:10119c001000200020308800200020004030880003
:1011ac00803e200092ff07001000200020308800b5
:1011bc004000200040308800803e20008cff07005b
:1011cc0010002000203088004000200040308800b3
:1011dc00803e200086ff0700100020002030880091
:1011ec008000200040308800803e200080ff0700f7
:1011fc0010002000203088000001200040308800c2
:10120c00803e20007aff07000426ef000005200036
:10121c0040308800803e200075ff07001000200041
:10122c00203088002000200040308800803e2000c4
:10123c006fff0700100020002030880050002000b5
:10124c0040308800803e200069ff0700100020001d
:10125c00203088008000200040308800803e200034
:10126c0063ff070010002000203088008000200061
:10127c0040308800803e20005dff070010002000f9
:10128c00203088004000200040308800803e200044
:10129c0057ff07001000200020308800400020007d
:1012ac0040308800803e200051ff070010002000d5
:1012bc00203088002000200040308800803e200034
:1012cc004bff070010002000203088001000200089
:1012dc0040308800803e200045ff07000426ef00c8
:1012ec008005200040308800803e200040ff070031
:1012fc001000200020308800800020004030880042
:10130c00803e20003aff07001000200020308800ab
:10131c004001200040308800803e200034ff070050
:10132c001000200020308800200020004030880071
:10133c00803e20002eff0700100020002030880087
:10134c002000200040308800803e200028ff07004d
:10135c001000200020308800400020004030880021
:10136c00803e200022ff0700100020002030880063
:10137c004000200040308800803e20001cff070009
:10138c0010002000203088008000200040308800b1
:10139c00803e200016ff070010002000203088003f
:1013ac000001200040308800803e200010ff070024
:1013bc000426ef000006200040308800803e20000c
:1013cc000bff0700100020002030880030002000a8
:1013dc0040308800803e200005ff070010002000f0
:1013ec00203088006000200040308800803e2000c3
:1013fc00fffe070010002000203088004000200075
:10140c0040308800803e2000f9fe070010002000cc
:10141c0020308800c000200040308800803e200032
:10142c00f3fe070010002000203088008000200010
:10143c0040308800803e2000edfe070010002000a8
:10144c00203088008001200040308800803e200041
:10145c00e7fe0700100020002030880080012000eb
:10146c0040308800803e2000e1fe07001000200084
:10147c00203088008001200040308800803e200011
:10148c00dbfe07000426ef008006200040308800b9
:10149c00803e2000d6fe070010002000203088007f
:1014ac008001200040308800803e2000d0fe0700e4
:1014bc001000200020308800c00020004030880040
:1014cc00803e2000cafe070010002000203088005b
:1014dc008000200040308800803e2000c4fe0700c1
:1014ec001000200020308800600020004030880070
:1014fc00803e2000befe0700100020002030880037
:10150c002000200040308800803e2000b8fe0700fc
:10151c00100020002030880030002000403088006f
:10152c00803e2000b2fe0700100020002030880012
:10153c003000200040308800803e2000acfe0700c8
:10154c00100020002030880030002000403088003f
:10155c00803e2000a6fe07000426ef0000072000b6
:10156c0040308800803e2000a1fe070010002000c3
:10157c00203088007000200040308800803e200021
:10158c009bfe070010002000203088008000200007
:10159c0040308800803e200095fe0700100020009f
:1015ac0020308800b000200040308800803e2000b1
:1015bc008ffe07001000200020308800b0002000b3
:1015cc0040308800803e200089fe0700100020007b
:1015dc0020308800c000200040308800803e200071
:1015ec0083fe07001000200020308800100120002e
:1015fc0040308800803e20007dfe07001000200057
:10160c0020308800c000200040308800803e200040
:10161c0077fe0700100020002030880030002000ea
:10162c0040308800803e200071fe07000426ef0049
:10163c008007200040308800803e20006cfe0700b0
:10164c001000200020308800c001200040308800ad
:10165c00803e200066fe070010002000203088002d
:10166c002000200040308800803e200060fe0700f3
:10167c001000200020308800a0012000403088009d
:10168c00803e20005afe0700100020002030880009
:10169c00a001200040308800803e200054fe07004e
:1016ac0010002000203088001000200040308800fe
:1016bc00803e20004efe07001000200020308800e5
:1016cc001001200040308800803e200048fe0700ba
:1016dc00100020002030880060002000403088007e
:1016ec00803e200042fe07001000200020308800c1
:1016fc008001200040308800803e20003cfe070026
:10170c00cbfd07000080fa00000006000000fa0084
:10171c000426ef000004200040308800803e2000aa
:10172c0033fe07001000200020308800f00020005d
:10173c0040308800803e20002dfe07001000200065
:10174c00203088001001200040308800803e2000ae
:10175c0027fe070010002000203088002001200008
:10176c0040308800803e200021fe07001000200041
:10177c00203088000001200040308800803e20008e
:10178c001bfe0700100020002030880010012000f4
:10179c0040308800803e200015fe0700100020001d
:1017ac00203088000001200040308800803e20005e
:1017bc000ffe0700100020002030880010012000d0
:1017cc0040308800803e200009fe070010002000f9
:1017dc0020308800f000200040308800803e20003f
:1017ec0003fe07000426ef00800420004030880030
:1017fc00803e2000fefd07001000200020308800f5
:10180c00e001200040308800803e2000f8fd0700f9
:10181c00100020002030880010012000403088008b
:10182c00803e2000f2fd07001000200020308800d0
:10183c009000200040308800803e2000ecfd070026
:10184c00100020002030880010012000403088005b
:10185c00803e2000e6fd07001000200020308800ac
:10186c001001200040308800803e2000e0fd070081
:10187c00100020002030880010002000403088002c
:10188c00803e2000dafd0700100020002030880088
:10189c001000200040308800803e2000d4fd07005e
:1018ac001000200020308800e0012000403088002b
:1018bc00803e2000cefd07000426ef00000520002e
:1018cc0040308800803e2000c9fd07001000200039
:1018dc0020308800a001200040308800803e20008d
:1018ec00c3fd07001000200020308800900120006c
:1018fc0040308800803e2000bdfd07001000200015
:10190c0020308800f001200040308800803e20000c
:10191c00b7fd07001000200020308800f0002000e8
:10192c0040308800803e2000b1fd070010002000f0
:10193c00203088007000200040308800803e20005d
:10194c00abfd070010002000203088003000200084
:10195c0040308800803e2000a5fd070010002000cc
:10196c00203088001000200040308800803e20008d
:10197c009ffd070010002000203088001000200080
:10198c0040308800803e200099fd07000426ef00bf
:10199c008005200040308800803e200094fd070028
:1019ac001000200020308800b0002000403088005b
:1019bc00803e20008efd07001000200020308800a3
:1019cc003001200040308800803e200088fd070058
:1019dc001000200020308800f001200040308800ea
:1019ec00803e200082fd070010002000203088007f
:1019fc00e001200040308800803e20007cfd070084
:101a0c001000200020308800c001200040308800e9
:101a1c00803e200076fd070010002000203088005a
:101a2c008001200040308800803e200070fd0700bf
:101a3c001000200020308800000120004030880079
:101a4c00803e20006afd0700100020002030880036
:101a5c000001200040308800803e200064fd07001b
:101a6c000426ef000006200040308800803e200055
:101a7c005ffd07001000200020308800300020009f
:101a8c0040308800803e200059fd070010002000e7
:101a9c00203088006000200040308800803e20000c
:101aac0053fd07001000200020308800400020006b
:101abc0040308800803e20004dfd070010002000c3
:101acc0020308800c000200040308800803e20007c
:101adc0047fd070010002000203088008000200007
:101aec0040308800803e200041fd0700100020009f
:101afc00203088008001200040308800803e20008b
:101b0c003bfd0700100020002030880080012000e1
:101b1c0040308800803e200035fd0700100020007a
:101b2c00203088008001200040308800803e20005a
:101b3c002ffd07000426ef008006200040308800af
:101b4c00803e20002afd0700100020002030880075
:101b5c008001200040308800803e200024fd0700da
:101b6c001000200020308800c00020004030880089
:101b7c00803e20001efd0700100020002030880051
:101b8c008000200040308800803e200018fd0700b7
:101b9c0010002000203088006000200040308800b9
:101bac00803e200012fd070010002000203088002d
:101bbc002000200040308800803e20000cfd0700f3
:101bcc0010002000203088003000200040308800b9
:101bdc00803e200006fd0700100020002030880009
:101bec003000200040308800803e200000fd0700bf
:101bfc001000200020308800300020004030880089
:101c0c00803e2000fafc07000426ef0000072000ad
:101c1c0040308800803e2000f5fc070010002000ba
:101c2c00203088007000200040308800803e20006a
:101c3c00effc0700100020002030880080002000fe
:101c4c0040308800803e2000e9fc07001000200096
:101c5c0020308800b000200040308800803e2000fa
:101c6c00e3fc07001000200020308800b0002000aa
:101c7c0040308800803e2000ddfc07001000200072
:101c8c0020308800c000200040308800803e2000ba
:101c9c00d7fc070010002000203088001001200025
:101cac0040308800803e2000d1fc0700100020004e
:101cbc0020308800c000200040308800803e20008a
:101ccc00cbfc0700100020002030880030002000e2
:101cdc0040308800803e2000c5fc07000426ef0041
:101cec008007200040308800803e2000c0fc0700a8
:101cfc001000200020308800c001200040308800f7
:101d0c00803e2000bafc0700100020002030880024
:101d1c002000200040308800803e2000b4fc0700ea
:101d2c001000200020308800a001200040308800e6
:101d3c00803e2000aefc0700100020002030880000
:101d4c00a001200040308800803e2000a8fc070045
:101d5c001000200020308800100020004030880047
:101d6c00803e2000a2fc07001000200020308800dc
:101d7c001001200040308800803e20009cfc0700b1
:101d8c0010002000203088006000200040308800c7
:101d9c00803e200096fc07001000200020308800b8
:101dac008001200040308800803e200090fc07001d
:0c1dbc001ffc07000080fa000000060079
:020000040000fa
:101dc800020800000c0800000200000053616e00c9
:101dd800647374006f723a00643d35002c6f3d00e7
:101de800342c62003d313100323a3100366536001c
:101df8002c31360065362c0031366500362c310022
:101e0800366536002c386500362c310036653600cc
:101e18002c31360065362c0031366100362c310005
:101e2800366136002c31360061362c0031366100bf
:101e3800362c3100366736002c31360067362c00d8
:101e480031366700362c3100366436002c313600c6
:101e580065362c0031366500362c31003665360083
:101e68002c31360065362c00386536002c313600aa
:101e780065362c0031366100362c31003665360067
:101e88002c31360065362c0031366500362c310091
:101e9800366536002c386500362c3100366536003c
:101ea8002c31360064362c0031366500360053007c
:101eb800616e640073746f00723a64003d342c00e4
:101ec8006f3d35002c623d00313235003a31360025
:101ed800652c310036652c00313665002c31360012
:101ee800652c3800652c310036652c0031366500cc
:101ef8002c313600652c310036652c0031366500f2
:101f08002c313600652c3800652c310036612c00e8
:101f1800313661002c313600612c310036612c00dd
:101f2800313661002c313600612c3800612c3100cb
:101f380036672c00313667002c313600672c3100ab
:101f480036672c00313667002c313600672c380094
:101f5800672c310036642c00313664002c31360091
:101f6800652c310036652c00313665002c31360081
:101f7800652c3800652c310036652c00313665003b
:101f88002c313600652c310036652c003136650061
:101f98002c313600652c3800652c310036612c0058
:101fa800313661002c313600652c310036652c0045
:101fb800313665002c313600652c3800652c31002f
:101fc80036652c00313665002c313600652c310021
:101fd80036652c00313665002c313600652c38000a
:101fe800650042006c7565003a643d00342c6f0052
:101ff8003d352c00623d310030303a003861230015
:10200800362c3800632337002c3136006123360024
:102018002c313600632337002c3136006423370017
:102028002c313600642337002c3136006423360007
:102038002c38630023372c003136630023372c00fb
:102048003136650023372c0038662300372c3100e1
:1020580036652300372c3800642337002c313600ce
:10206800612336002c313600632337002c313600cb
:10207800642337002c313600642337002c313600b6
:10208800642336002c38630023370000546f78002f
:102098006963690074793a00643d34002c6f3d002f
:1020a800352c62003d313200353a67002c3870001b
:1020b8002c313600672c310036672c003864230039
:1020c8002e2c310036632c00672c3800702c310020
:1020d80036672c00313667002c386400232e2c001c
:1020e800313663002c3867002c326400232c38000a
:1020f800632c3800672c3200642c3800702c670081
:102108002c3870002c3867002c3867002c38670092
:102118002c3867002c3867002c3867002c3867008b
:102128002c386100232c3800672c380064232c00dd
:1021380064232c0038662c00386423002c38640093
:10214800232c310036642c0031366400232c3100f6
:1021580036642c00313663002c3264002c32640063
:10216800232e2c00326423002c31360067232c00e8
:1021780031366700232c3100366723002c3867007e
:10218800232c6700232c380061232c003867230098
:102198002c386700232c3200642c3800702c38004f
:1021a800632c3800672c320064232c0038632c0021
:1021b80038672c00326423002c3863002c67230016
:1021c8002c6123002c386700232c38006700470057
:1021d80069676900446167006f3a64003d382c0004
:1021e8006f3d35002c623d00313430003a632c00dd
:1021f800652c3400662c66002c672c00662c650064
:102208002c642c00632c3400632c64002c652c0097
:1022180034652c00642c65002c3466002c3467006f
:102228002c662c00652c64002c632c0034642c0074
:10223800642c63002c3463002c632c00652c340060
:10224800662c66002c672c00662c65002c642c001c
:10225800632c3400632c64002c652c0034652c003e
:10226800642c65002c3466002c3467002c662c0026
:10227800652c64002c632c0034642c00642c6300ef
:102288002c3463000049570061734d006164650098
:102298003a643d00342c6f003d362c00623d31001d
:1022a80032353a00632c64002c3864005f2c31000e
:1022b800366335002c313600702c3800662c380017
:1022c800672c3100366335002c313600702c38000d
:1022d800672c66002c645f002c642c00632c64005f
:1022e8002c3864005f2c3100366635002c313600fe
:1022f800702c3800662c3800672c310036663500a3
:102308002c313600702c3800672c66002e2c3100da
:10231800366635002c313600702c310036663500b3
:102328002c313600702c3100366635002c313600e1
:10233800702c63002c642c0038645f002c3136004c
:1023480063352c00313670002c3866002c38670055
:102358002c31360063352c00313670002c3867007c
:102368002c662c00645f2c00642c63002c642c0009
:1023780038645f002c31360066352c003136700029
:102388002c3866002c3867002c31360066352c0056
:10239800313670002c3867002c662e002c31360040
:1023a80066352c00313670002c31360066352c002d
:1023b800313670002c31360066352c00313670000d
:1023c8002c632c00642c3800645f2c0031366300c9
:1023d800352c310036702c0038662c0038672c00fc
:1023e80031366300352c310036702c0038672c00ec
:1023f800662c64005f2c64002c632c00642c38006d
:10240800645f2c0031366600352c310036702c00a4
:1024180038662c0038672c0031366600352c3100c0
:1024280036702c0038672c00662e2c00313666007a
:10243800352c310036702c0031366600352c3100d1
:1024480036702c0031366600352c310036702c0081
:1024580038633500004672006565730074796c0056
:102468003a643d0031362c006f3d35002c623d004a
:10247800313630003a386700362c380065362c0083
:1024880038622c00386736002c386500362c380046
:10249800622c380067362c00386536002c3862000c
:1024a8002c38660023362c00386536002c3862003c
:1024b8002c38660023362c00386536002c3862002c
:1024c8002c386400362c380063362c0038672c0012
:1024d800386436002c386300362c3800672c3800f6
:1024e80064362c00386336002c3867002c386500b9
:1024f800362c380064362c0038612c0038653600dc
:102508002c386400362c3800612c380065362c00d5
:1025180061004200616454006f756300683a6400aa
:102528003d3136002c6f3d00352c62003d353000c2
:102538003a6323002e372c0067232e00372c6700c0
:10254800232e37002c672300372c61002e372c00f0
:1025580061372c0067232e00372c61002e372c00a2
:10256800386723002e372c0067232e00372c67008e
:10257800232e37002c672300372c61002e372c00c0
:1025880061372c0067232e00372c61002e372c0072
:1025980067232e00372c62002e372c0067232e006d
:1025a800372c6700232e37002c672300372c610057
:1025b8002e372c0061372c0067232e00372c610042
:1025c8002e372c0067232e00372c380065372c0057
:1025d800386537002c3865002e372c00652e3700fb
:1025e8002c6623002e370000546865006d653a009c
:1025f800643d34002c6f3d00362c62003d363300bc
:102608003a313600652c330032662c0033326500cf
:102618002c3862002c31360065372c0033326600c6
:10262800372c3300326537002c3862002c313600e5
:10263800652c330032662c00333265002c313600ad
:10264800622c3100366537002c6437002c38700056
:102658002c702c00313665002c333200662c330088
:1026680032652c0038622c0031366500372c330077
:10267800326637002c33320065372c0038622c0064
:10268800313665002c333200662c330032652c005d
:10269800313662002c31360065372c0066372c0045
:1026a8007000540068656d00653a64003d342c0084
:1026b8006f3d36002c623d00323030003a386600fb
:1026c800352c380066352c00386535002c38650007
:1026d800352c3800645f35002c3864005f352c00d9
:1026e800386535002c386500352c380066352c00e7
:1026f800386635002c386500352c380065352c00d7
:1027080038645f00352c3800645f35002c3865006c
:10271800352c380065352c00386635002c386600b5
:10272800352c380065352c00386535002c386400a8
:102738005f352c0038645f00352c380065352c0077
:10274800386535002c675f00352c3200675f35002f
:102758002c702c00386635002c386600352c380073
:1027680065352c00386535002c3864005f352c0041
:1027780038645f00352c380065352c003865350025
:102788002c386600352c380066352c003865350045
:102798002c386500352c3800645f35002c3864000f
:1027a8005f352c00386535002c386500352c38002d
:1027b80066352c00386635002c386500352c380015
:1027c80065352c0038645f00352c3800645f3500af
:1027d8002c386500352c380065352c00675f3500ce
:1027e8002c3267005f352c00702c380066352c00c1
:1027f800386635002c386500352c380065352c00d6
:1028080038645f00352c3800645f35002c3865006b
:10281800352c380065352c00386635002c386600b4
:10282800352c380065352c00386535002c386400a7
:102838005f352c0038645f00352c380065352c0076
:10284800386535002c386600352c380066352c0084
:10285800386535002c386500352c3800645f350044
:102868002c3864005f352c00386535002c3865003d
:10287800352c67005f352c0032675f00352c7000ff
:102888002c6635000000000000080000020000006f
:10289800000000000e1000001800000002000000f8
:1028a8005a105200115a120072139a0014d31500cc
:1028b8001f177f0018f41900801b22001dde1e0060
:0428c800e61980008d
:020000040000fa
:1028cc000400fa00000f78009e007800c000200081
:1028dc0000017800110009008200d8008000fd0082
:1028ec0080004000e00021000080400010007800d3
:1028fc00100798001e017800c000200080017800ad
:10290c00110009000301d80069001000120020001a
:10291c000010dd009e0190000001780011000900fc
:10292c008201d8000080fa00000006001c00fa00aa
:10293c00500f9800de089000010f78004000200036
:10294c00100798006000200020079800f00320007a
:10295c00300798000000eb00200f980001003700b2
:10296c001e0fe8001e007800104078000004e00004
:10297c00050032001e00780090407800a0c3b30020
:10298c0080cf5000f6ff3a001e007800104078000f
:10299c000004e000ef0132001e0fe8005800370081
:1029ac001e0fe80001003700000000001e00780038
:1029bc009040780000c2b30080cf5000f8ff320086
:1029cc001e007800104078000004e000e3013200a3
:1029dc001e00780090407800a0c3b30080cf500058
:1029ec004c0032001e0078001041780062579800ad
:1029fc001e0fe8001e00780090407800d0c3b30092
:102a0c0080cf5000d7013a001e0fe8000000eb0009
:102a1c00400798000a0037004e0090006a00b90089
:102a2c00800078001e007800104078000000fb0049
:102a3c000003b10000804000400798001e0fe80022
:102a4c001e00780090407800f0c2b30080cf500098
:102a5c00050034001e0078009040780090c3b3004d
:102a6c0080cf5000ecff34006e5090000000fb0053
:102a7c0041062000810f500007003200f1062000b3
:102a8c00810f50000b00320021062000810f5000f6
:102a9c000b0032000f003700010220004e009000a6
:102aac0000027800110009008400d800100798007b
:102abc0006003700ce009000210798000300370075
:102acc004e01900032079800000000000100370012
:102adc001e0fe8001e0078009040780000c2b30082
:102aec0080cf5000faff32001e0078009040780032
:102afc00c0c2b30080cf500001003a001e0fe800a6
:102b0c001e007800104078000004e000a6ff3a0098
:102b1c0001003700000000001e0fe800880137009c
:102b2c000080eb00500798002e029000640798007c
:102b3c009e00900071079800010037001e0fe800fe
:102b4c001e0078009040780000c2b30080cf500087
:102b5c00faff32001e007800104078000004e000fc
:102b6c00820132001e00780090407800f0c2b30061
:102b7c0080cf5000220034001e0078009040780076
:102b8c0090c3b30080cf50001d003c000000eb0050
:102b9c00100f98000a0037001e0890006a00b90058
:102bac00800078001e007800104078000000fb00c8
:102bbc000003b10000804000100f98001e0fe800c9
:102bcc001e00780090407800f0c2b30080cf500017
:102bdc00050034001e0078009040780090c3b300cc
:102bec0080cf5000ecff3400010220001e08900042
:102bfc0000017800110009008200d80070079800cd
:102c0c001e007800104078000000fb00cf80de0032
:102c1c000207200003002000820f5000838f580011
:102c2c008d003e0000600100520137008a00370021
:102c3c00890037008800370087003700860037008e
:102c4c00850037008400370083003700820037008e
:102c5c0081003700800037007f0037007e0037008e
:102c6c007d0037007c0037007b0037007a0037008e
:102c7c00790037007800370077003700760037008e
:102c8c00750037007400370073003700720037008e
:102c9c0071003700700037006f0037006e0037008e
:102cac006d0037006c0037006b0037006a0037008e
:102cbc00690037006800370067003700660037008e
:102ccc00650037006400370063003700620037008e
:102cdc0061003700600037005f0037005e0037008e
:102cec005d0037005c0037005b0037005a0037008e
:102cfc00590037005800370057003700560037008e
:102d0c00550037005400370053003700520037008d
:102d1c0051003700500037004f0037004e0037008d
:102d2c004d0037004c0037004b0037003e00370099
:102d3c00430037002d0037002f00370031003700db
:102d4c0033003700350037003a00370042003700b7
:102d5c0041003700400037003f0037003e0037008d
:102d6c003d0037003c003700380037003a00370090
:102d7c00390037003800370037003700360037008d
:102d8c00350037003400370033003700320037008d
:102d9c0031003700300037002f0037002e0037008d
:102dac002d0037002c0037002b0037001e00370099
:102dbc00230037000d0037000f00370011003700db
:102dcc0013003700150037001a00370022003700b7
:102ddc0021003700200037001f0037001e0037008d
:102dec001d0037001c003700180037000000eb00f6
:102dfc00500798001800370020002000500798005a
:102e0c0015003700400020005007980012003700d2
:102e1c0050002000500798000f0037007000200071
:102e2c00500798000c0037009000200050079800c5
:102e3c0009003700b000200050079800060037004a
:102e4c00b000200050079800030037000080eb0012
:102e5c0050079800000000001e0fe8001e007800cc
:102e6c009040780030c2b30080cf500004003a008c
:102e7c005e0090000000e800500798001e0fe8006c
:102e8c001e0078009040780020c6b30080cf500020
:102e9c0004003a005e0090000000e9005007980022
:102eac001e0fe8001e00780090407800e0c2b300ce
:102ebc0080cf500009003a00fe0090002000200056
:102ecc0000027800110009008400d800fe00900078
:102edc0000804000700798001e0fe8001e0078006c
:102eec0090407800f0c2b30080cf50000b0034004b
:102efc001e0078009040780090c3b30080cf500043
:102f0c0006003c001e007800104078000000fb001a
:102f1c000003b100600798001e0fe8001e00780047
:102f2c0090407800e0c2b30080cf50000c003a0013
:102f3c00fe00900020002000000178001100090024
:102f4c008200d800fe0090000080400070079800be
:102f5c001e0fe800030037001e0fe80001003700c9
:102f6c00000000001e0078009040780000c2b30002
:102f7c0080cf5000f8ff32001e007800904078009f
:102f8c00c0c2b30080cf500001003a001e0fe80011
:102f9c007e009000cf80de0002a62e000289b900d0
:102fac00020178006002b90084017800030141003d
:102fbc0003a62e000300b800010141008200780036
:102fcc003e0190004311dd00cf91de005ff507005c
:102fdc00400f98005e009000e10f400003003a00a3
:102fec000000eb00000f9800080037006e00900006
:102ffc000000e8006c00b900800078005e009000d2
:10300c00008040002efe0700000f98000e08900074
:10301c000000e0003d0032000e089000cf80de0082
:10302c000001be0000902000d103200047f50700ee
:10303c0000007800600888004e089000cf80de0009
:10304c006109b90074002000050020006033b8004d
:10305c005ff607004300de004d0add000000720041
:10306c00c308de004d12dd00810072004311de004a
:10307c004d1add0002017200c319de0004b42400f5
:10308c00c50420006033b80051f60700843e2000d0
:10309c00050020006033b800e4f507000000be0016
:1030ac00b90007004e089000cf80de006109b9001e
:1030bc004300de004d0add0000007200c308de0094
:1030cc004d12dd00810072004311de004d1add004f
:1030dc0002017200c319de0004b42400c5042000f0
:1030ec006033b8003af60700843e2000050020004b
:1030fc006033b800cdf507000000be00a200070049
:10310c000080eb00600888000d0037004e0890002e
:10311c00cf80de006109b90004b42400c50420008e
:10312c006033b8002af60700843e2000050020001a
:10313c006033b800bdf507000000be009200070028
:10314c001e007800104078000004e00074fe3a0085
:10315c0009003700000000000700370000000000e5
:10316c0005003700000000000300370000000000dd
:10317c0001003700000000000080fa00000006008b
:10318c000000fa0060002000200c880000202000c5
:10319c00100c880000402000000c88000000280063
:1031ac0080088800c002a900c022a900c042a90062
:1031bc00c062a900c082a900c0a2a900c0c2a90017
:1031cc00c0e2a90096f60700a4f70700c422ef009e
:1031dc00a2f7070007f70700b100200040582800ad
:1031ec00adf6070040c0b300c8f6070050c0b300ee
:1031fc00c6f60700c402a80090ce2000cbfd070045
:10320c00fcf607000101200000592800a2f6070077
:10321c0020c0b300bdf6070030c0b300bbf60700fa
:10322c0081002000105a28009bf60700c422a80039
:10323c00d0b82000bdfd0700eef60700a10020006d
:10324c00a05a280094f607000040eb00aff60700e8
:10325c0010c0b300adf6070011012000505b280030
:10326c008df607000040eb00a8f6070010c0b30075
:10327c00a6f60700c442a80020802000abfd070082
:10328c00c462a80020802000a8fd0700d9f6070022
:10329c0091002000705c28007ff6070060c0b3002e
:1032ac009af6070070c0b30098f6070060c0b30030
:1032bc0096f6070070c0b30094f60700b10020002a
:1032cc00105d280074f60700c482a80020a120001d
:1032dc0096fd07000df90700c6f607000101200056
:1032ec00d05d28006cf607000040eb0087f6070065
:1032fc0010c0b30085f60700c1002000e05e280076
:10330c0065f607000040eb0080f6070010c0b30024
:10331c007ef60700c4a2a80040b0200083fd070081
:10332c00b4f60700c1002000b05f28005af6070071
:10333c00c4c2a80070e120007cfd0700adf60700b8
:10334c00710020008060280053f6070020c0b300f5
:10335c006ef6070030c0b3006cf607005100200079
:10336c00006128004cf6070020c0b30067f6070088
:10337c0030c0b30065f60700c4e2a80030ea2000b4
:08338c006afd070091ff370004
:020000040000fa
:10339400f03fb1000180b10006003500ee030900e2
:1033a40000000000403fb1000180b100fbff3d0080
:1033b4001000b000203fb00002003500008009007a
:0833c4000000000000000600fb
:020000040000fa
:0433cc0000000000fd
:020000040000fa
:020000040002f8
:04aff800be7a00001d
:020000040000fa
:020000040002f8
:04affc00ff3f000013
:00000001FF
