:020000040000fa
:080000000002040000000000f2
:020000040000fa
:04000800a80200004a
:020000040000fa
:04000c00a802000046
:020000040000fa
:04001000a802000042
:020000040000fa
:04001400a80200003e
:020000040000fa
:04001800a80200003a
:020000040000fa
:04001c00a802000036
:020000040000fa
:04002000a802000032
:020000040000fa
:04002400a80200002e
:020000040000fa
:04002800a80200002a
:020000040000fa
:04002c00a802000026
:020000040000fa
:04003000a802000022
:020000040000fa
:04003400a80200001e
:020000040000fa
:04003800a80200001a
:020000040000fa
:04003c00a802000016
:020000040000fa
:04004000a802000012
:020000040000fa
:04004400a80200000e
:020000040000fa
:04004800a80200000a
:020000040000fa
:04004c00a802000006
:020000040000fa
:04005000a802000002
:020000040000fa
:04005400a8020000fe
:020000040000fa
:04005800a8020000fa
:020000040000fa
:04005c00a8020000f6
:020000040000fa
:04006000a8020000f2
:020000040000fa
:04006400a8020000ee
:020000040000fa
:04006800a8020000ea
:020000040000fa
:04006c00a8020000e6
:020000040000fa
:04007000a8020000e2
:020000040000fa
:04007400a8020000de
:020000040000fa
:04007800a8020000da
:020000040000fa
:04007c00a8020000d6
:020000040000fa
:04008000a8020000d2
:020000040000fa
:04008400a8020000ce
:020000040000fa
:04008800a8020000ca
:020000040000fa
:04008c00a8020000c6
:020000040000fa
:04009000a8020000c2
:020000040000fa
:04009400a8020000be
:020000040000fa
:04009800a8020000ba
:020000040000fa
:04009c00a8020000b6
:020000040000fa
:0400a000a8020000b2
:020000040000fa
:0400a400a8020000ae
:020000040000fa
:0400a800a8020000aa
:020000040000fa
:0400ac00a8020000a6
:020000040000fa
:0400b000a8020000a2
:020000040000fa
:0400b400a80200009e
:020000040000fa
:0400b800a80200009a
:020000040000fa
:0400bc00a802000096
:020000040000fa
:0400c000a802000092
:020000040000fa
:0400c400a80200008e
:020000040000fa
:0400c800a80200008a
:020000040000fa
:0400cc00a802000086
:020000040000fa
:0400d000a802000082
:020000040000fa
:0400d400a80200007e
:020000040000fa
:0400d800a80200007a
:020000040000fa
:0400dc00a802000076
:020000040000fa
:0400e000a802000072
:020000040000fa
:0400e400a80200006e
:020000040000fa
:0400e800a80200006a
:020000040000fa
:0400ec00a802000066
:020000040000fa
:0400f000a802000062
:020000040000fa
:0400f400a80200005e
:020000040000fa
:0400f800a80200005a
:020000040000fa
:0400fc00a802000056
:020000040000fa
:04010000a802000051
:020000040000fa
:04010400a80200004d
:020000040000fa
:04010800a802000049
:020000040000fa
:04010c00a802000045
:020000040000fa
:04011000a802000041
:020000040000fa
:04011400a80200003d
:020000040000fa
:04011800a802000039
:020000040000fa
:04011c00a802000035
:020000040000fa
:04012000a802000031
:020000040000fa
:04012400a80200002d
:020000040000fa
:04012800a802000029
:020000040000fa
:04012c00a802000025
:020000040000fa
:04013000a802000021
:020000040000fa
:04013400a80200001d
:020000040000fa
:04020800a802000048
:020000040000fa
:04020c00a802000044
:020000040000fa
:04021000a802000040
:020000040000fa
:04021400a80200003c
:020000040000fa
:04021800a802000038
:020000040000fa
:04021c00a802000034
:020000040000fa
:04022000a802000030
:020000040000fa
:04022400a80200002c
:020000040000fa
:04022800a802000028
:020000040000fa
:04022c00a802000024
:020000040000fa
:04023000a802000020
:020000040000fa
:04023400a80200001c
:020000040000fa
:04023800a802000018
:020000040000fa
:04023c00a802000014
:020000040000fa
:04024000a802000010
:020000040000fa
:04024400a80200000c
:020000040000fa
:04024800a802000008
:020000040000fa
:04024c00a802000004
:020000040000fa
:04025000a802000000
:020000040000fa
:04025400a8020000fc
:020000040000fa
:04025800a8020000f8
:020000040000fa
:04025c00a8020000f4
:020000040000fa
:04026000a8020000f0
:020000040000fa
:04026400a8020000ec
:020000040000fa
:04026800a8020000e8
:020000040000fa
:04026c00a8020000e4
:020000040000fa
:04027000a8020000e0
:020000040000fa
:04027400a8020000dc
:020000040000fa
:04027800a8020000d8
:020000040000fa
:04027c00a8020000d4
:020000040000fa
:04028000a8020000d0
:020000040000fa
:04028400a8020000cc
:020000040000fa
:04028800a8020000c8
:020000040000fa
:04028c00a8020000c4
:020000040000fa
:04029000a8020000c0
:020000040000fa
:04029400a8020000bc
:020000040000fa
:04029800a8020000b8
:020000040000fa
:04029c00a8020000b4
:020000040000fa
:0402a000a8020000b0
:020000040000fa
:0402a400a8020000ac
:020000040000fa
:0402a800a8020000a8
:020000040000fa
:0402ac00a8020000a4
:020000040000fa
:0402b000a8020000a0
:020000040000fa
:0402b400a80200009c
:020000040000fa
:0402b800a802000098
:020000040000fa
:0402bc00a802000094
:020000040000fa
:0402c000a802000090
:020000040000fa
:0402c400a80200008c
:020000040000fa
:0402c800a802000088
:020000040000fa
:0402cc00a802000084
:020000040000fa
:0402d000a802000080
:020000040000fa
:0402d400a80200007c
:020000040000fa
:0402d800a802000078
:020000040000fa
:0402dc00a802000074
:020000040000fa
:0402e000a802000070
:020000040000fa
:0402e400a80200006c
:020000040000fa
:0402e800a802000068
:020000040000fa
:0402ec00a802000064
:020000040000fa
:0402f000a802000060
:020000040000fa
:0402f400a80200005c
:020000040000fa
:0402f800a802000058
:020000040000fa
:0402fc00a802000054
:020000040000fa
:04030000a80200004f
:020000040000fa
:04030400a80200004b
:020000040000fa
:04030800a802000047
:020000040000fa
:04030c00a802000043
:020000040000fa
:04031000a80200003f
:020000040000fa
:04031400a80200003b
:020000040000fa
:04031800a802000037
:020000040000fa
:04031c00a802000033
:020000040000fa
:04032000a80200002f
:020000040000fa
:04032400a80200002b
:020000040000fa
:04032800a802000027
:020000040000fa
:04032c00a802000023
:020000040000fa
:04033000a80200001f
:020000040000fa
:04033400a80200001b
:020000040000fa
:100400002f8020000e7f22000e01880000000000d7
:10041000000020000000e000020032000001200087
:10042000200288000c00070020802000010020002e
:1004300011000700000020000000e0000200320070
:100440000000020000000000ba06020000000000e8
:100450000040da000000fe004440a9000000200037
:100460000000e0000300320000002000a00188002e
:100470004440a80000000600910188008000780038
:100480000000eb0015003700e280400032a0b4000d
:100490009101ba00e280400032a0b4009102ba009b
:1004a000e280400032a0b4000002eb00472bde00e7
:1004b000f507b200602ce10004003a000059eb009f
:1004c0008301e900fdff3e00040037006128e100e0
:1004d000010032000082eb000b00070011c3ba00dc
:1004e0001101ba000604e00003003a000200e00037
:1004f000e5ff3a0000000600f607b200960188000a
:1005000082007800f5ff37003159ba008301e90015
:100510000c0032002159ba008301e90008003200c2
:100520000400e00003003a00e280400032a0b40082
:10053000f5ff370011d9ba008301e900faff3a004c
:100540008100e800e180400032a0b4000000060015
:100550000040da000000fe00220c800080007800dd
:100560006601610000c0eb00e60f510002003a0096
:0c057000010c880010c0b3000000060061
:020000040000fa
:10057c000000fa00f03f20001030880030382800ce
:10058c0000308800100020006030880000e2240059
:10059c00eb00070000e22400e90007000426ef004e
:1005ac00800320004030880080202500e4000700f4
:1005bc000426ef00c000200040308800803e200060
:1005cc00df0007000426ef006000200040308800a8
:1005dc0080bb2000da0007005a00070010c0b300ef
:1005ec000080fa00000006000400fa00000f7800fa
:1005fc00110798000a0037001e00780010407800a0
:10060c000000fb000000e000110032001e0078002a
:10061c00104078001e0fe8001000070000000000da
:10062c001e00900000f0a7000000ea000000ea00a5
:10063c004f00de00004078009e0090008100e90031
:10064c00110798000004e000ebff3a0001003700ae
:10065c00000000000080fa00000006000200fa0012
:10066c00004f78001e00fb00ea0f5000070032001c
:10067c00ed0f500003003200e80f50000a0032006a
:10068c000e0037003e0007002c00370000c8bf00ea
:10069c000004e00002003a009e000700270037002b
:1006ac0091000700250037004700070000c2b30087
:1006bc00eaff07004400070020003700100020006c
:1006cc00203088001e00fb0040308800803e200057
:1006dc009b00070001c8bf000040e80001e8b7001c
:1006ec0001c8bf00f04f500013003a000168ef0042
:1006fc0000c8bf000004e00008003a000426ef0028
:10070c00000c20004030880080bb20008c000700cb
:10071c0010c0b30000e8b700080037000426ef0053
:10072c00000820004030880080bb200084000700b7
:10073c000068ef0001003700000000000080fa00a4
:10074c00000006000000fa000426ef001000200054
:10075c004030880080bb2000790007000426ef00a1
:10076c00200020004030880080bb2000740007006f
:10077c000068ef000168ef000080fa00000006003e
:10078c000000fa0000c8bf000004e00006003a00b8
:10079c000426ef00000820004030880080bb2000b9
:1007ac0067000700050037000426ef00000c20004e
:1007bc004030880080bb2000610007000168ef001a
:1007cc000080fa00000006000200fa0001c8bf0019
:1007dc000004e0001a003a0000c8bf000004e0006a
:1007ec0008003a000426ef00000c2000403088007e
:1007fc0080bb20005200070010c0b30000e8b70017
:10080c00060037000426ef00000820004030880066
:10081c0080bb20004a0007000068ef000040eb009e
:10082c00004f7800020037000f0007001e4fe80051
:10083c001e407800ee4f5000fbff360008003700da
:10084c0001c8bf000040e90001e8b7000426ef0032
:10085c000001200040308800803e20003800070056
:10086c000080fa00000006000000fa000426ef00e9
:10087c004001200040308800803e200030000700fe
:10088c0001c8bf000040e80001e8b70001c8bf0084
:10089c00f04f500012003a000168ef0000c8bf0092
:1008ac000004e00008003a000426ef00000c2000d1
:1008bc004030880080bb20002100070010c0b3002e
:1008cc0000e8b700060037000426ef0000082000ff
:1008dc004030880080bb2000190007000068ef0042
:1008ec000080fa00000006000200fa000040eb0055
:1008fc00004f780002003700b3ff07001e4fe800de
:10090c001e407800ef4f5000fbff36000080fa00cd
:10091c00000006000200fa000040eb00004f7800d7
:10092c0002003700d0ff07001e4fe8001e40780081
:10093c00ef4f5000fbff36000080fa00000006006d
:10094c000200fa00000f7800010037001e0fe900ca
:10095c001e0078000000e000fcff3a000080fa0066
:10096c00000006000200fa00004f78001e407800dc
:10097c000004e000060032000426ef00f000200026
:10098c004030880080bb2000edff070005003700d9
:10099c000426ef00c00020004030880080bb2000ff
:1009ac00e7ff07000080fa00000006000000fa00d4
:1009bc000426ef000004200040308800803e200018
:1009cc00dfff070010002000203088000826ef0011
:1009dc00803e2000daff0700100020002030880045
:1009ec000826ef00803e2000d5ff070010002000f5
:1009fc00203088000826ef00803e2000d0ff070042
:100a0c0010002000203088000826ef00803e2000d7
:100a1c00cbff070010002000203088000826ef00d4
:100a2c00803e2000c6ff0700100020002030880008
:100a3c000826ef00803e2000c1ff070010002000b8
:100a4c00203088000826ef00803e2000bcff070005
:100a5c0010002000203088000826ef00803e200087
:100a6c00b7ff07000426ef00800420004030880008
:100a7c00803e2000b2ff07001000200020308800cc
:100a8c000826ef00803e2000adff0700100020007c
:100a9c00203088000826ef00803e2000a8ff0700c9
:100aac0010002000203088000826ef00803e200037
:100abc00a3ff070010002000203088000826ef005c
:100acc00803e20009eff0700100020002030880090
:100adc000826ef00803e200099ff07001000200040
:100aec00203088000826ef00803e200094ff07008d
:100afc0010002000203088000826ef00803e2000e7
:100b0c008fff07001000200020308800f00f20001d
:100b1c0040308800803e200089ff07000426ef004b
:100b2c000005200040308800803e200084ff070034
:100b3c0010002000203088000826ef00803e2000a6
:100b4c007fff070010002000203088000826ef00ef
:100b5c00803e20007aff0700100020002030880023
:100b6c000826ef00803e200075ff070010002000d3
:100b7c00203088000826ef00803e200070ff070020
:100b8c0010002000203088000826ef00803e200056
:100b9c006bff07001000200020308800f00f2000b1
:100bac0040308800803e200065ff070010002000c8
:100bbc00203088000826ef00803e200060ff0700f0
:100bcc001000200020308800f00f200040308800fa
:100bdc00803e20005aff07000426ef00800520000d
:100bec0040308800803e200055ff07001000200098
:100bfc00203088000826ef00803e200050ff0700c0
:100c0c0010002000203088000826ef00803e2000d5
:100c1c004bff070010002000203088000826ef0052
:100c2c00803e200046ff0700100020002030880086
:100c3c00f00f200040308800803e200040ff07006d
:100c4c0010002000203088000826ef00803e200095
:100c5c003bff07001000200020308800f00f200020
:100c6c0040308800803e200035ff07001000200037
:100c7c00203088000826ef00803e200030ff07005f
:100c8c001000200020308800f00f20004030880039
:100c9c00803e20002aff07000426ef0000062000fb
:100cac0040308800803e200025ff07001000200007
:100cbc00203088000826ef00803e200020ff07002f
:100ccc001000200020308800f00f200040308800f9
:100cdc00803e20001aff0700100020002030880002
:100cec000826ef00803e200015ff070010002000b2
:100cfc0020308800f00f200040308800803e20001b
:100d0c000fff070010002000203088000826ef009d
:100d1c00803e20000aff07001000200020308800d1
:100d2c00f00f200040308800803e200004ff0700b8
:100d3c0010002000203088000826ef00803e2000a4
:100d4c00fffe07001000200020308800f00f20006c
:100d5c0040308800803e2000f9fe070088fe070026
:100d6c000080fa00000006000200fa00600020007b
:100d7c00200c8800803e2000100c8800007d200094
:100d8c00000c88000000280080088800c002a90020
:100d9c00c022a900c042a900c062a900c082a9005b
:100dac00c0a2a900c0c2a900c0e2a900f0fd0700c2
:100dbc00fefe07000000eb00000f7800800c200006
:100dcc00e2fd070000242400f10020007c00070055
:100ddc000000eb00ddfd070000242400f1002000e2
:100dec0077000700800c2000d8fd070000242400a9
:100dfc00f1002000720007000000eb00d3fd07009b
:100e0c0000242400f10020006d000700800c20005d
:100e1c00cefd070000482800e10120006800070013
:100e2c000000eb00c9fd070000242400f1002000a5
:100e3c006300070080252000c4fd07000024240067
:100e4c00f10020005e0007000000eb00bffd070072
:100e5c0000122a0071002000590007000032200007
:100e6c00bafd070000242400f10020005400070004
:100e7c000000eb00000f7800060037001e00780021
:100e8c00b2fd070000352c00010020004c000700cb
:100e9c001e0fe800f07c20009e007800808f500030
:100eac00f6ff3400800c2000a8fd0700c402a80047
:100ebc000040eb00e9fd070000b42400c104200051
:100ecc003f00070000192000a0fd0700c422a80065
:100edc0010c0b300e1fd070000b42400c1042000e1
:100eec00370007000032200098fd0700c442a8001c
:100efc0020c0b300d9fd070000b42400c1042000b9
:100f0c002f000700803e200090fd0700c462a8005f
:100f1c0000b42400c104200029000700004b20006d
:100f2c008afd0700c482a80030c0b300cbfd0700c7
:100f3c0000b42400c10420002100070080572000c9
:100f4c0082fd0700c4a2a80000b42400c104200044
:100f5c001b000700006420007cfd0700c4c2a80031
:100f6c0040c0b300bdfd070000b42400c104200044
:100f7c00130007008070200074fd0700c4e2a80075
:100f8c0000b42400c10420000d000700c402a90015
:100f9c00c422a900c442a900c462a900c482a90049
:100fac00c4a2a900c4c2a900c4e2a900e5fd0700bf
:100fbc00003f2b00a1012000010007007fff37003c
:020000040000fa
:100fcc00f03fb1000180b10006003500ee030900ce
:100fdc0000000000403fb1000180b100fbff3d006c
:100fec001000b000203fb000020035000080090066
:080ffc000000000000000600e7
:020000040000fa
:101004000008000002000000000000000a08800040
:020000040000fa
:0410140000000000d8
:020000040000fa
:020000040002f8
:04aff800be7a00001d
:020000040000fa
:020000040002f8
:04affc00ff3f000013
:00000001FF
