:020000040000fa
:080000000002040000000000f2
:020000040000fa
:04000800a80200004a
:020000040000fa
:04000c00a802000046
:020000040000fa
:04001000a802000042
:020000040000fa
:04001400a80200003e
:020000040000fa
:04001800a80200003a
:020000040000fa
:04001c00a802000036
:020000040000fa
:04002000a802000032
:020000040000fa
:04002400a80200002e
:020000040000fa
:04002800a80200002a
:020000040000fa
:04002c00a802000026
:020000040000fa
:04003000a802000022
:020000040000fa
:04003400a80200001e
:020000040000fa
:04003800a80200001a
:020000040000fa
:04003c00a802000016
:020000040000fa
:04004000a802000012
:020000040000fa
:04004400a80200000e
:020000040000fa
:04004800a80200000a
:020000040000fa
:04004c00a802000006
:020000040000fa
:04005000a802000002
:020000040000fa
:04005400a8020000fe
:020000040000fa
:04005800a8020000fa
:020000040000fa
:04005c00a8020000f6
:020000040000fa
:04006000a8020000f2
:020000040000fa
:04006400a8020000ee
:020000040000fa
:04006800a8020000ea
:020000040000fa
:04006c00a8020000e6
:020000040000fa
:04007000a8020000e2
:020000040000fa
:04007400a8020000de
:020000040000fa
:04007800a8020000da
:020000040000fa
:04007c00a8020000d6
:020000040000fa
:04008000a8020000d2
:020000040000fa
:04008400a8020000ce
:020000040000fa
:04008800a8020000ca
:020000040000fa
:04008c00a8020000c6
:020000040000fa
:04009000a8020000c2
:020000040000fa
:04009400a8020000be
:020000040000fa
:04009800a8020000ba
:020000040000fa
:04009c00a8020000b6
:020000040000fa
:0400a000a8020000b2
:020000040000fa
:0400a400a8020000ae
:020000040000fa
:0400a800a8020000aa
:020000040000fa
:0400ac00a8020000a6
:020000040000fa
:0400b000a8020000a2
:020000040000fa
:0400b400a80200009e
:020000040000fa
:0400b800a80200009a
:020000040000fa
:0400bc00a802000096
:020000040000fa
:0400c000a802000092
:020000040000fa
:0400c400a80200008e
:020000040000fa
:0400c800a80200008a
:020000040000fa
:0400cc00a802000086
:020000040000fa
:0400d000a802000082
:020000040000fa
:0400d400a80200007e
:020000040000fa
:0400d800a80200007a
:020000040000fa
:0400dc00a802000076
:020000040000fa
:0400e000a802000072
:020000040000fa
:0400e400a80200006e
:020000040000fa
:0400e800a80200006a
:020000040000fa
:0400ec00a802000066
:020000040000fa
:0400f000a802000062
:020000040000fa
:0400f400a80200005e
:020000040000fa
:0400f800a80200005a
:020000040000fa
:0400fc00a802000056
:020000040000fa
:04010000a802000051
:020000040000fa
:04010400a80200004d
:020000040000fa
:04010800a802000049
:020000040000fa
:04010c00a802000045
:020000040000fa
:04011000a802000041
:020000040000fa
:04011400a80200003d
:020000040000fa
:04011800a802000039
:020000040000fa
:04011c00a802000035
:020000040000fa
:04012000a802000031
:020000040000fa
:04012400a80200002d
:020000040000fa
:04012800a802000029
:020000040000fa
:04012c00a802000025
:020000040000fa
:04013000a802000021
:020000040000fa
:04013400a80200001d
:020000040000fa
:04020800a802000048
:020000040000fa
:04020c00a802000044
:020000040000fa
:04021000a802000040
:020000040000fa
:04021400a80200003c
:020000040000fa
:04021800a802000038
:020000040000fa
:04021c00a802000034
:020000040000fa
:04022000a802000030
:020000040000fa
:04022400a80200002c
:020000040000fa
:04022800a802000028
:020000040000fa
:04022c00a802000024
:020000040000fa
:04023000a802000020
:020000040000fa
:04023400a80200001c
:020000040000fa
:04023800a802000018
:020000040000fa
:04023c00a802000014
:020000040000fa
:04024000a802000010
:020000040000fa
:04024400a80200000c
:020000040000fa
:04024800a802000008
:020000040000fa
:04024c00a802000004
:020000040000fa
:04025000a802000000
:020000040000fa
:04025400a8020000fc
:020000040000fa
:04025800a8020000f8
:020000040000fa
:04025c00a8020000f4
:020000040000fa
:04026000a8020000f0
:020000040000fa
:04026400a8020000ec
:020000040000fa
:04026800a8020000e8
:020000040000fa
:04026c00a8020000e4
:020000040000fa
:04027000a8020000e0
:020000040000fa
:04027400a8020000dc
:020000040000fa
:04027800a8020000d8
:020000040000fa
:04027c00a8020000d4
:020000040000fa
:04028000a8020000d0
:020000040000fa
:04028400a8020000cc
:020000040000fa
:04028800a8020000c8
:020000040000fa
:04028c00a8020000c4
:020000040000fa
:04029000a8020000c0
:020000040000fa
:04029400a8020000bc
:020000040000fa
:04029800a8020000b8
:020000040000fa
:04029c00a8020000b4
:020000040000fa
:0402a000a8020000b0
:020000040000fa
:0402a400a8020000ac
:020000040000fa
:0402a800a8020000a8
:020000040000fa
:0402ac00a8020000a4
:020000040000fa
:0402b000a8020000a0
:020000040000fa
:0402b400a80200009c
:020000040000fa
:0402b800a802000098
:020000040000fa
:0402bc00a802000094
:020000040000fa
:0402c000a802000090
:020000040000fa
:0402c400a80200008c
:020000040000fa
:0402c800a802000088
:020000040000fa
:0402cc00a802000084
:020000040000fa
:0402d000a802000080
:020000040000fa
:0402d400a80200007c
:020000040000fa
:0402d800a802000078
:020000040000fa
:0402dc00a802000074
:020000040000fa
:0402e000a802000070
:020000040000fa
:0402e400a80200006c
:020000040000fa
:0402e800a802000068
:020000040000fa
:0402ec00a802000064
:020000040000fa
:0402f000a802000060
:020000040000fa
:0402f400a80200005c
:020000040000fa
:0402f800a802000058
:020000040000fa
:0402fc00a802000054
:020000040000fa
:04030000a80200004f
:020000040000fa
:04030400a80200004b
:020000040000fa
:04030800a802000047
:020000040000fa
:04030c00a802000043
:020000040000fa
:04031000a80200003f
:020000040000fa
:04031400a80200003b
:020000040000fa
:04031800a802000037
:020000040000fa
:04031c00a802000033
:020000040000fa
:04032000a80200002f
:020000040000fa
:04032400a80200002b
:020000040000fa
:04032800a802000027
:020000040000fa
:04032c00a802000023
:020000040000fa
:04033000a80200001f
:020000040000fa
:04033400a80200001b
:020000040000fa
:100400002f8020000e7f22000e01880000000000d7
:10041000000020000000e000020032000001200087
:10042000200288000c000700c05c200001002000b2
:1004300011000700000020000000e0000200320070
:10044000000002000000000036050200000000006d
:100450000040da000000fe004440a9000000200037
:100460000000e0000300320000002000a00188002e
:100470004440a80000000600910188008000780038
:100480000000eb0015003700e280400032a0b4000d
:100490009101ba00e280400032a0b4009102ba009b
:1004a000e280400032a0b4000002eb00472bde00e7
:1004b000f507b200602ce10004003a000059eb009f
:1004c0008301e900fdff3e00040037006128e100e0
:1004d000010032000082eb000b00070011c3ba00dc
:1004e0001101ba000604e00003003a000200e00037
:1004f000e5ff3a0000000600f607b200960188000a
:1005000082007800f5ff37003159ba008301e90015
:100510000c0032002159ba008301e90008003200c2
:100520000400e00003003a00e280400032a0b40082
:10053000f5ff370011d9ba008301e900faff3a004c
:100540008100e800e180400032a0b4000000060015
:080550000040da000000fe008b
:020000040000fa
:100558000000fa00f03f20001030880030382800f2
:1005680000308800100020006030880000e224007d
:10057800eb00070000e22400e90007000426ef0072
:10058800800320004030880080202500e400070018
:100598000426ef00c000200040308800803e200084
:1005a800df0007000426ef006000200040308800cc
:1005b80080bb2000da0007005a00070010c0b30013
:1005c8000080fa00000006000400fa00000f78001e
:1005d800110798000a0037001e00780010407800c4
:1005e8000000fb000000e000110032001e0078004f
:1005f800104078001e0fe8001000070000000000ff
:100608001e00900000f0a7000000ea000000ea00c9
:100618004f00de00004078009e0090008100e90055
:10062800110798000004e000ebff3a0001003700d2
:10063800000000000080fa00000006000200fa0036
:10064800004f78001e00fb00ea0f50000700320040
:10065800ed0f500003003200e80f50000a0032008e
:100668000e0037003e0007002c00370000c8bf000e
:100678000004e00002003a009e000700270037004f
:1006880091000700250037004700070000c2b300ab
:10069800eaff070044000700200037001000200090
:1006a800203088001e00fb0040308800803e20007b
:1006b8009b00070001c8bf000040e80001e8b70040
:1006c80001c8bf00f04f500013003a000168ef0066
:1006d80000c8bf000004e00008003a000426ef004c
:1006e800000c20004030880080bb20008c000700f0
:1006f80010c0b30000e8b700080037000426ef0078
:10070800000820004030880080bb200084000700db
:100718000068ef0001003700000000000080fa00c8
:10072800000006000000fa000426ef001000200078
:100738004030880080bb2000790007000426ef00c5
:10074800200020004030880080bb20007400070093
:100758000068ef000168ef000080fa000000060062
:100768000000fa0000c8bf000004e00006003a00dc
:100778000426ef00000820004030880080bb2000dd
:1007880067000700050037000426ef00000c200072
:100798004030880080bb2000610007000168ef003e
:1007a8000080fa00000006000200fa0001c8bf003d
:1007b8000004e0001a003a0000c8bf000004e0008e
:1007c80008003a000426ef00000c200040308800a2
:1007d80080bb20005200070010c0b30000e8b7003b
:1007e800060037000426ef0000082000403088008b
:1007f80080bb20004a0007000068ef000040eb00c3
:10080800004f7800020037000f0007001e4fe80075
:100818001e407800ee4f5000fbff360008003700fe
:1008280001c8bf000040e90001e8b7000426ef0056
:100838000001200040308800803e2000380007007a
:100848000080fa00000006000000fa000426ef000d
:100858004001200040308800803e20003000070022
:1008680001c8bf000040e80001e8b70001c8bf00a8
:10087800f04f500012003a000168ef0000c8bf00b6
:100888000004e00008003a000426ef00000c2000f5
:100898004030880080bb20002100070010c0b30052
:1008a80000e8b700060037000426ef000008200023
:1008b8004030880080bb2000190007000068ef0066
:1008c8000080fa00000006000200fa000040eb0079
:1008d800004f780002003700b3ff07001e4fe80002
:1008e8001e407800ef4f5000fbff36000080fa00f2
:1008f800000006000200fa000040eb00004f7800fc
:1009080002003700d0ff07001e4fe8001e407800a5
:10091800ef4f5000fbff36000080fa000000060091
:100928000200fa00000f7800010037001e0fe900ee
:100938001e0078000000e000fcff3a000080fa008a
:10094800000006000200fa00004f78001e40780000
:100958000004e000060032000426ef00f00020004a
:100968004030880080bb2000edff070005003700fd
:100978000426ef00c00020004030880080bb200023
:10098800e7ff07000080fa00000006000000fa00f8
:100998000426ef008004200040308800803e2000bc
:1009a800dfff070010002000203088000826ef0035
:1009b800803e2000daff0700100020002030880069
:1009c8004000200040308800803e2000d4ff07000f
:1009d8001000200020308800a0002000403088004f
:1009e800803e2000ceff0700100020002030880045
:1009f800a000200040308800803e2000c8ff07008b
:100a0800100020002030880050012000403088006d
:100a1800803e2000c2ff0700100020002030880020
:100a2800a000200040308800803e2000bcff070066
:100a3800100020002030880040002000403088004e
:100a4800803e2000b6ff07001000200020308800fc
:100a58000826ef00803e2000b1ff07000080fa0062
:100a6800000006000000fa00c002a900c022a90088
:100a7800c042a900c062a900c082a900c0a2a90002
:100a8800c0c2a900c0e2a900b1fe0700bfff07006d
:100a980010c0b300e9fe070010c0b300e7fe07006e
:100aa80010c0b300e5fe0700c402a800003f2b00f9
:100ab800a101200028000700c422a800003f2b0045
:100ac800a101200024000700c442a800003f2b0019
:100ad800a101200020000700c462a800003f2b00ed
:100ae800a10120001c000700c482a800003f2b00c1
:100af800a101200018000700c4a2a800003f2b0095
:100b0800a101200014000700c4c2a800003f2b0068
:100b1800a101200010000700c4e2a800003f2b003c
:100b2800a10120000c000700c402a900c422a900ea
:100b3800c442a900c462a900c482a900c4a2a90031
:100b4800c4c2a900c4e2a900003f2b00a1012000f3
:080b580001000700d4ff370083
:020000040000fa
:100b6000f03fb1000180b10006003500ee0309003e
:100b700000000000403fb1000180b100fbff3d00dc
:100b80001000b000203fb0000200350000800900d6
:080b9000000000000000060057
:020000040000fa
:100b9800000800000200000000000000d4058000ea
:020000040000fa
:040ba8000000000049
:020000040000fa
:020000040002f8
:04aff800be7a00001d
:020000040000fa
:020000040002f8
:04affc00ff3f000013
:00000001FF
