:020000040000fa
:080000000002040000000000f2
:020000040000fa
:04000800a80200004a
:020000040000fa
:04000c00a802000046
:020000040000fa
:04001000a802000042
:020000040000fa
:04001400a80200003e
:020000040000fa
:04001800a80200003a
:020000040000fa
:04001c00a802000036
:020000040000fa
:04002000a802000032
:020000040000fa
:04002400a80200002e
:020000040000fa
:04002800a80200002a
:020000040000fa
:04002c00a802000026
:020000040000fa
:04003000a802000022
:020000040000fa
:04003400a80200001e
:020000040000fa
:04003800a80200001a
:020000040000fa
:04003c00a802000016
:020000040000fa
:04004000a802000012
:020000040000fa
:04004400a80200000e
:020000040000fa
:04004800a80200000a
:020000040000fa
:04004c00a802000006
:020000040000fa
:04005000a802000002
:020000040000fa
:04005400a8020000fe
:020000040000fa
:04005800a8020000fa
:020000040000fa
:04005c00a8020000f6
:020000040000fa
:04006000a8020000f2
:020000040000fa
:04006400a8020000ee
:020000040000fa
:04006800a8020000ea
:020000040000fa
:04006c00a8020000e6
:020000040000fa
:04007000a8020000e2
:020000040000fa
:04007400a8020000de
:020000040000fa
:04007800a8020000da
:020000040000fa
:04007c00a8020000d6
:020000040000fa
:04008000a8020000d2
:020000040000fa
:04008400a8020000ce
:020000040000fa
:04008800a8020000ca
:020000040000fa
:04008c00a8020000c6
:020000040000fa
:04009000a8020000c2
:020000040000fa
:04009400a8020000be
:020000040000fa
:04009800a8020000ba
:020000040000fa
:04009c00a8020000b6
:020000040000fa
:0400a000a8020000b2
:020000040000fa
:0400a400a8020000ae
:020000040000fa
:0400a800a8020000aa
:020000040000fa
:0400ac00a8020000a6
:020000040000fa
:0400b000a8020000a2
:020000040000fa
:0400b400a80200009e
:020000040000fa
:0400b800a80200009a
:020000040000fa
:0400bc00a802000096
:020000040000fa
:0400c000a802000092
:020000040000fa
:0400c400a80200008e
:020000040000fa
:0400c800a80200008a
:020000040000fa
:0400cc00a802000086
:020000040000fa
:0400d000a802000082
:020000040000fa
:0400d400a80200007e
:020000040000fa
:0400d800a80200007a
:020000040000fa
:0400dc00a802000076
:020000040000fa
:0400e000a802000072
:020000040000fa
:0400e400a80200006e
:020000040000fa
:0400e800a80200006a
:020000040000fa
:0400ec00a802000066
:020000040000fa
:0400f000a802000062
:020000040000fa
:0400f400a80200005e
:020000040000fa
:0400f800a80200005a
:020000040000fa
:0400fc00a802000056
:020000040000fa
:04010000a802000051
:020000040000fa
:04010400a80200004d
:020000040000fa
:04010800a802000049
:020000040000fa
:04010c00a802000045
:020000040000fa
:04011000a802000041
:020000040000fa
:04011400a80200003d
:020000040000fa
:04011800a802000039
:020000040000fa
:04011c00a802000035
:020000040000fa
:04012000a802000031
:020000040000fa
:04012400a80200002d
:020000040000fa
:04012800a802000029
:020000040000fa
:04012c00a802000025
:020000040000fa
:04013000a802000021
:020000040000fa
:04013400a80200001d
:020000040000fa
:04020800a802000048
:020000040000fa
:04020c00a802000044
:020000040000fa
:04021000a802000040
:020000040000fa
:04021400a80200003c
:020000040000fa
:04021800a802000038
:020000040000fa
:04021c00a802000034
:020000040000fa
:04022000a802000030
:020000040000fa
:04022400a80200002c
:020000040000fa
:04022800a802000028
:020000040000fa
:04022c00a802000024
:020000040000fa
:04023000a802000020
:020000040000fa
:04023400a80200001c
:020000040000fa
:04023800a802000018
:020000040000fa
:04023c00a802000014
:020000040000fa
:04024000a802000010
:020000040000fa
:04024400a80200000c
:020000040000fa
:04024800a802000008
:020000040000fa
:04024c00a802000004
:020000040000fa
:04025000a802000000
:020000040000fa
:04025400a8020000fc
:020000040000fa
:04025800a8020000f8
:020000040000fa
:04025c00a8020000f4
:020000040000fa
:04026000a8020000f0
:020000040000fa
:04026400a8020000ec
:020000040000fa
:04026800a8020000e8
:020000040000fa
:04026c00a8020000e4
:020000040000fa
:04027000a8020000e0
:020000040000fa
:04027400a8020000dc
:020000040000fa
:04027800a8020000d8
:020000040000fa
:04027c00a8020000d4
:020000040000fa
:04028000a8020000d0
:020000040000fa
:04028400a8020000cc
:020000040000fa
:04028800a8020000c8
:020000040000fa
:04028c00a8020000c4
:020000040000fa
:04029000a8020000c0
:020000040000fa
:04029400a8020000bc
:020000040000fa
:04029800a8020000b8
:020000040000fa
:04029c00a8020000b4
:020000040000fa
:0402a000a8020000b0
:020000040000fa
:0402a400a8020000ac
:020000040000fa
:0402a800a8020000a8
:020000040000fa
:0402ac00a8020000a4
:020000040000fa
:0402b000a8020000a0
:020000040000fa
:0402b400a80200009c
:020000040000fa
:0402b800a802000098
:020000040000fa
:0402bc00a802000094
:020000040000fa
:0402c000a802000090
:020000040000fa
:0402c400a80200008c
:020000040000fa
:0402c800a802000088
:020000040000fa
:0402cc00a802000084
:020000040000fa
:0402d000a802000080
:020000040000fa
:0402d400a80200007c
:020000040000fa
:0402d800a802000078
:020000040000fa
:0402dc00a802000074
:020000040000fa
:0402e000a802000070
:020000040000fa
:0402e400a80200006c
:020000040000fa
:0402e800a802000068
:020000040000fa
:0402ec00a802000064
:020000040000fa
:0402f000a802000060
:020000040000fa
:0402f400a80200005c
:020000040000fa
:0402f800a802000058
:020000040000fa
:0402fc00a802000054
:020000040000fa
:04030000a80200004f
:020000040000fa
:04030400a80200004b
:020000040000fa
:04030800a802000047
:020000040000fa
:04030c00a802000043
:020000040000fa
:04031000a80200003f
:020000040000fa
:04031400a80200003b
:020000040000fa
:04031800a802000037
:020000040000fa
:04031c00a802000033
:020000040000fa
:04032000a80200002f
:020000040000fa
:04032400a80200002b
:020000040000fa
:04032800a802000027
:020000040000fa
:04032c00a802000023
:020000040000fa
:04033000a80200001f
:020000040000fa
:04033400a80200001b
:020000040000fa
:100400004f9220000e7f22000e01880000000000a5
:10041000000020000000e000020032000001200087
:10042000200288000c000700a0ad20000100200081
:1004300011000700000020000000e0000200320070
:100440000000020000000000b00b020000000000ed
:100450000040da000000fe004440a90060002000d7
:100460000000e0000300320000002000a00188002e
:100470004440a80000000600910188008000780038
:100480000000eb0015003700e280400032a0b4000d
:100490009101ba00e280400032a0b4009102ba009b
:1004a000e280400032a0b4000002eb00472bde00e7
:1004b000f507b200602ce10004003a000059eb009f
:1004c0008301e900fdff3e00040037006128e100e0
:1004d000010032000082eb000b00070011c3ba00dc
:1004e0001101ba000604e00003003a000200e00037
:1004f000e5ff3a0000000600f607b200960188000a
:1005000082007800f5ff37003159ba008301e90015
:100510000c0032002159ba008301e90008003200c2
:100520000400e00003003a00e280400032a0b40082
:10053000f5ff370011d9ba008301e900faff3a004c
:100540008100e800e180400032a0b4000000060015
:100550000040da000000fe00220c800080007800dd
:100560006601610000c0eb00e60f510002003a0096
:10057000010c880010c0b30000000600839f6800d3
:100580000100e00002003d0060001000e080180063
:100590000300e00002003d0060011100e08119004d
:1005a000050007004f00e00002003b006000100063
:1005b000e0801800000006006022b800060220005b
:1005c0000000d0008180d2000482d2008582d20057
:1005d0000000a0000202520083825a000300310092
:1005e0000202420083824a000000a1000603e900e3
:0805f000f3ff3a0000000600d1
:020000040000fa
:0c05f80045520000524f0000520000006d
:020000040000fa
:100604000000fa00f03f2000103088003038280045
:1006140000308800100020006030880000e22400d0
:10062400eb00070000e22400e90007000426ef00c5
:10063400800320004030880080202500e40007006b
:100644000426ef00c000200040308800803e2000d7
:10065400df0007000426ef0060002000403088001f
:1006640080bb2000da0007005a00070010c0b30066
:100674000080fa00000006000400fa00000f780071
:10068400110798000a0037001e0078001040780017
:100694000000fb000000e000110032001e007800a2
:1006a400104078001e0fe800100007000000000052
:1006b4001e00900000f0a7000000ea000000ea001d
:1006c4004f00de00004078009e0090008100e900a9
:1006d400110798000004e000ebff3a000100370026
:1006e400000000000080fa00000006000200fa008a
:1006f400004f78001e00fb00ea0f50000700320094
:10070400ed0f500003003200e80f50000a003200e1
:100714000e0037003e0007002c00370000c8bf0061
:100724000004e00002003a009e00070027003700a2
:1007340091000700250037004700070000c2b300fe
:10074400eaff0700440007002000370010002000e3
:10075400203088001e00fb0040308800803e2000ce
:100764009b00070001c8bf000040e80001e8b70093
:1007740001c8bf00f04f500013003a000168ef00b9
:1007840000c8bf000004e00008003a000426ef009f
:10079400000c20004030880080bb20008c00070043
:1007a40010c0b30000e8b700080037000426ef00cb
:1007b400000820004030880080bb2000840007002f
:1007c4000068ef0001003700000000000080fa001c
:1007d400000006000000fa000426ef0010002000cc
:1007e4004030880080bb2000790007000426ef0019
:1007f400200020004030880080bb200074000700e7
:100804000068ef000168ef000080fa0000000600b5
:100814000000fa0000c8bf000004e00006003a002f
:100824000426ef00000820004030880080bb200030
:1008340067000700050037000426ef00000c2000c5
:100844004030880080bb2000610007000168ef0091
:100854000080fa00000006000200fa0001c8bf0090
:100864000004e0001a003a0000c8bf000004e000e1
:1008740008003a000426ef00000c200040308800f5
:1008840080bb20005200070010c0b30000e8b7008e
:10089400060037000426ef000008200040308800de
:1008a40080bb20004a0007000068ef000040eb0016
:1008b400004f7800020037000f0007001e4fe800c9
:1008c4001e407800ee4f5000fbff36000800370052
:1008d40001c8bf000040e90001e8b7000426ef00aa
:1008e4000001200040308800803e200038000700ce
:1008f4000080fa00000006000000fa000426ef0061
:100904004001200040308800803e20003000070075
:1009140001c8bf000040e80001e8b70001c8bf00fb
:10092400f04f500012003a000168ef0000c8bf0009
:100934000004e00008003a000426ef00000c200048
:100944004030880080bb20002100070010c0b300a5
:1009540000e8b700060037000426ef000008200076
:100964004030880080bb2000190007000068ef00b9
:100974000080fa00000006000200fa000040eb00cc
:10098400004f780002003700b3ff07001e4fe80055
:100994001e407800ef4f5000fbff36000080fa0045
:1009a400000006000200fa000040eb00004f78004f
:1009b40002003700d0ff07001e4fe8001e407800f9
:1009c400ef4f5000fbff36000080fa0000000600e5
:1009d4000200fa00000f7800010037001e0fe90042
:1009e4001e0078000000e000fcff3a000080fa00de
:1009f400000006000200fa00004f78001e40780054
:100a04000004e000060032000426ef00f00020009d
:100a14004030880080bb2000edff07000500370050
:100a24000426ef00c00020004030880080bb200076
:100a3400e7ff07000080fa00000006000000fa004b
:100a44000426ef000004200040308800803e20008f
:100a5400dfff070010002000203088000826ef0088
:100a6400803e2000daff07001000200020308800bc
:100a74000826ef00803e2000d5ff0700100020006c
:100a8400203088000826ef00803e2000d0ff0700b9
:100a940010002000203088000826ef00803e20004f
:100aa400cbff070010002000203088000826ef004c
:100ab400803e2000c6ff0700100020002030880080
:100ac4000826ef00803e2000c1ff07001000200030
:100ad400203088000826ef00803e2000bcff07007d
:100ae40010002000203088000826ef00803e2000ff
:100af400b7ff07000426ef00800420004030880080
:100b0400803e2000b2ff0700100020002030880043
:100b14000826ef00803e2000adff070010002000f3
:100b2400203088000826ef00803e2000a8ff070040
:100b340010002000203088000826ef00803e2000ae
:100b4400a3ff070010002000203088000826ef00d3
:100b5400803e20009eff0700100020002030880007
:100b64000826ef00803e200099ff070010002000b7
:100b7400203088000826ef00803e200094ff070004
:100b840010002000203088000826ef00803e20005e
:100b94008fff07001000200020308800f00f200095
:100ba40040308800803e200089ff07000426ef00c3
:100bb4000005200040308800803e200084ff0700ac
:100bc40010002000203088000826ef00803e20001e
:100bd4007fff070010002000203088000826ef0067
:100be400803e20007aff070010002000203088009b
:100bf4000826ef00803e200075ff0700100020004b
:100c0400203088000826ef00803e200070ff070097
:100c140010002000203088000826ef00803e2000cd
:100c24006bff07001000200020308800f00f200028
:100c340040308800803e200065ff0700100020003f
:100c4400203088000826ef00803e200060ff070067
:100c54001000200020308800f00f20004030880071
:100c6400803e20005aff07000426ef008005200084
:100c740040308800803e200055ff0700100020000f
:100c8400203088000826ef00803e200050ff070037
:100c940010002000203088000826ef00803e20004d
:100ca4004bff070010002000203088000826ef00ca
:100cb400803e200046ff07001000200020308800fe
:100cc400f00f200040308800803e200040ff0700e5
:100cd40010002000203088000826ef00803e20000d
:100ce4003bff07001000200020308800f00f200098
:100cf40040308800803e200035ff070010002000af
:100d0400203088000826ef00803e200030ff0700d6
:100d14001000200020308800f00f200040308800b0
:100d2400803e20002aff07000426ef000006200072
:100d340040308800803e200025ff0700100020007e
:100d4400203088000826ef00803e200020ff0700a6
:100d54001000200020308800f00f20004030880070
:100d6400803e20001aff0700100020002030880079
:100d74000826ef00803e200015ff07001000200029
:100d840020308800f00f200040308800803e200092
:100d94000fff070010002000203088000826ef0015
:100da400803e20000aff0700100020002030880049
:100db400f00f200040308800803e200004ff070030
:100dc40010002000203088000826ef00803e20001c
:100dd400fffe07001000200020308800f00f2000e4
:100de40040308800803e2000f9fe070088fe07009e
:100df4000080fa00000006000400fa00000f7800ea
:100e04009e007800c0002000000178001100090055
:100e14008200d8008000fd0080004000c0902000c7
:100e24000080400010007800100798001e01780030
:100e3400c000200080017800110009000301d800df
:100e440069001000120020000010dd009e019000d7
:100e540000017800110009008201d8000080fa0026
:100e6400000006001c00fa00500f9800de089000f5
:100e7400010f780040002000100798006000200057
:100e840020079800f0032000300798000000eb00d2
:100e9400200f9800010037001e0fe8001e007800a4
:100ea400104078000004e000050032001e007800c5
:100eb40090407800a0c3b30080cf5000f6ff3a0002
:100ec4001e007800104078000004e000ad013200fc
:100ed4001e0fe800580037001e0fe800010037001d
:100ee400000000001e0078009040780000c2b300ab
:100ef40080cf5000f8ff32001e00780010407800c8
:100f04000004e000a10132001e0078009040780047
:100f1400a0c3b30080cf50004c0032001e00780004
:100f240010417800625798001e0fe8001e007800f8
:100f340090407800d0c3b30080cf500095013a00b0
:100f44001e0fe8000000eb00400798000a0037007d
:100f54004e0090006a00b900800078001e007800fe
:100f6400104078000000fb000003b1000080400046
:100f7400400798001e0fe8001e007800904078009b
:100f8400f0c2b30080cf5000050034001e0078008a
:100f94009040780090c3b30080cf5000ecff340041
:100fa4006e5090000000fb0041062000810f5000ad
:100fb40007003200f1062000810f50000b003200c0
:100fc40021062000810f50000b0032000f00370073
:100fd400010220004e009000000178001100090079
:100fe4008200d8001007980006003700ce00900059
:100ff40021079800030037004e0190003207980043
:1010040000000000010037001e0fe8001e007800f9
:101014009040780000c2b30080cf5000faff320045
:101024001e00780090407800c0c2b30080cf50000a
:1010340001003a001e0fe8001e00780010407800fe
:101044000004e000a6ff3a000100370000000000a1
:101054001e0fe800460137000080eb00500798009f
:10106400ae009000610798001e019000720798007e
:10107400010037001e0fe8001e0078009040780041
:1010840000c2b30080cf5000faff32001e00780087
:10109400104078000004e000400132001e00780097
:1010a40090407800f0c2b30080cf5000220034009a
:1010b4001e0078009040780090c3b30080cf5000a9
:1010c4001d003c000000eb00100f98000a003700e0
:1010d4001e0890006a00b900800078001e007800a5
:1010e400104078000000fb000003b10000804000c5
:1010f400100f98001e0fe8001e0078009040780042
:10110400f0c2b30080cf5000050034001e00780008
:101114009040780090c3b30080cf5000ecff3400bf
:10112400010220001e08900000017800110009004f
:101134008200d800700798001e00780010407800e4
:101144000000fb00cf80de00020720000300200027
:10115400820f5000838f58008d003e000060010014
:10116400100137008a0037008900370088003700f3
:101174008700370086003700850037008400370079
:101184008300370082003700810037008000370079
:101194007f0037007e0037007d0037007c00370079
:1011a4007b0037007a003700790037007800370079
:1011b4007700370076003700750037007400370079
:1011c4007300370072003700710037007000370079
:1011d4006f0037006e0037006d0037006c00370079
:1011e4006b0037006a003700690037006800370079
:1011f4006700370066003700650037006400370079
:101204006300370062003700610037006000370078
:101214005f0037005e0037005d0037005c00370078
:101224005b0037005a003700590037005800370078
:101234005700370056003700550037005400370078
:101244005300370052003700510037005000370078
:101254004f0037004e0037004d0037004c00370078
:101264004b0037003e003700430037002d003700a5
:101274002f003700310037003300370035003700c6
:101284003a00370042003700410037004000370081
:101294003f0037003e0037003d0037003c00370078
:1012a400380037003a00370039003700380037007b
:1012b4003700370036003700350037003400370078
:1012c4003300370032003700310037003000370078
:1012d4002f0037002e0037002d0037002c00370078
:1012e4002b0037001e003700230037000d003700a5
:1012f4000f003700110037001300370015003700c6
:101304001a00370022003700210037002000370080
:101314001f0037001e0037001d0037001c00370077
:10132400180037000000eb00500798001800370041
:1013340020002000500798001500370040002000ce
:101344005007980012003700500020005007980002
:101354000f00370070002000500798000c00370081
:10136400900020005007980009003700b0002000ca
:101374005007980006003700b0002000500798007e
:10138400030037000080eb005007980000000000c5
:101394001e0fe8001e0078009040780030c2b300b1
:1013a40080cf500004003a005e0090000000e80086
:1013b400500798001e0fe8001e0078009040780047
:1013c40020c6b30080cf500004003a005e009000b5
:1013d4000000e900500798001e0fe8001e00780086
:1013e40090407800e0c2b30080cf500009003a007a
:1013f400fe00900020002000000178001100090088
:101404008200d800fe009000008040007007980021
:101414001e0fe8001e00780090407800f0c2b30070
:1014240080cf50000b0034001e00780090407800fc
:1014340090c3b30080cf500006003c001e0078002b
:10144400104078000000fb000003b1006007980022
:101454001e0fe8001e00780090407800e0c2b30040
:1014640080cf50000c003a00fe00900020002000c5
:1014740000017800110009008200d800fe009000ed
:1014840000804000700798001e0fe800030037003a
:101494001e0fe80001003700000000001e00780065
:1014a4009040780000c2b30080cf5000f8ff3200b3
:1014b4001e00780090407800c0c2b30080cf500076
:1014c40001003a001e0fe8007e009000cf80de008d
:1014d40002a62e000289b900020178006002b90058
:1014e400840178000301410003a62e000300b80024
:1014f40001014100820078003e0190004311dd00ab
:10150400cf91de001cfc0700400f98005e009000a5
:10151400e10f400003003a000000eb00000f9800c8
:10152400080037006e0090000000e8006c00b9006d
:10153400800078005e009000008040002efe0700ce
:10154400000f98000e0890000000e0000800320030
:101554000e089000cf80de000001be000090200045
:10156400d103200004fc0700000078006008880014
:101574001e007800104078000004e000b6fe3a0037
:1015840009003700000000000700370000000000d9
:1015940005003700000000000300370000000000d1
:1015a40001003700000000000080fa00000006007f
:020000040000fa
:1015b400020800000a01000002000000416e6f00f2
:1015c40074686500724f3a00643d3100362c6f0038
:1015d4003d352c00623d3800303a330032702c0027
:1015e40033326400232e36002c33320063232e0062
:1015f400362c380061232e002c386100232e2c0059
:10160400346123002e2c3300326123002e2c610020
:10161400232e2c0061232e002c6323002e362c0055
:1016240033326100232e2c00346423002e362c0028
:1016340033326400232e36002c33320063232e0011
:10164400362c380061232e002c386100232e2c0008
:10165400346123002e2c3300326123002e2c6100d0
:10166400232e2c0061232e002c6323002e362c0005
:1016740033326100232e2c00346423002e362c00d8
:1016840033326400232e36002c33320063232e00c1
:10169400362c380061232e002c386100232e2c00b8
:1016a400346123002e2c3300326123002e2c610080
:1016b400232e2c0061232e002c6323002e362c00b5
:1016c40033326100232e2c00346423002e362c0088
:1016d40033326400232e36002c33320063232e0071
:1016e400362c380061232e002c386100232e2c0068
:1016f400346123002e2c3300326123002e2c610030
:10170400232e2c0061232e002c6323002e362c0064
:1017140033326100232e2c00346423003600000091
:101724000008000002000000000000000c09000096
:1017340018000000020000005a105200115a120052
:1017440072139a0014d315001f177f0018f41900a0
:0c175400801b22001dde1e00ec0b80003c
:020000040000fa
:101760000000fa0060002000200c8800002020000b
:10177000100c880000402000000c880000002800a9
:1017800080088800c002a900c022a900c042a900a8
:10179000c062a900c082a900c0a2a900c0c2a9005d
:1017a000c0e2a90097fb0700a5fc0700002020006d
:1017b00069fb0700e14f400004003a00510020009f
:1017c000c02f2800adfb0700ffff3700208020005e
:0817d000a5fd0700fdff370035
:020000040000fa
:0417d800000000000d
:020000040000fa
:020000040002f8
:04aff800be7a00001d
:020000040000fa
:020000040002f8
:04affc00ff3f000013
:00000001FF
